{
  "_format": "hh-sol-artifact-1",
  "contractName": "Brainly",
  "sourceName": "contracts/Brainly.sol",
  "abi": [
    {
      "inputs": [],
      "stateMutability": "nonpayable",
      "type": "constructor"
    },
    {
      "anonymous": false,
      "inputs": [
        {
          "indexed": true,
          "internalType": "address",
          "name": "owner",
          "type": "address"
        },
        {
          "indexed": true,
          "internalType": "address",
          "name": "approved",
          "type": "address"
        },
        {
          "indexed": true,
          "internalType": "uint256",
          "name": "tokenId",
          "type": "uint256"
        }
      ],
      "name": "Approval",
      "type": "event"
    },
    {
      "anonymous": false,
      "inputs": [
        {
          "indexed": true,
          "internalType": "address",
          "name": "owner",
          "type": "address"
        },
        {
          "indexed": true,
          "internalType": "address",
          "name": "operator",
          "type": "address"
        },
        {
          "indexed": false,
          "internalType": "bool",
          "name": "approved",
          "type": "bool"
        }
      ],
      "name": "ApprovalForAll",
      "type": "event"
    },
    {
      "anonymous": false,
      "inputs": [
        {
          "indexed": false,
          "internalType": "address",
          "name": "sender",
          "type": "address"
        },
        {
          "indexed": false,
          "internalType": "uint256",
          "name": "tokenId",
          "type": "uint256"
        }
      ],
      "name": "NewEpicNFTMinted",
      "type": "event"
    },
    {
      "anonymous": false,
      "inputs": [
        {
          "indexed": true,
          "internalType": "address",
          "name": "from",
          "type": "address"
        },
        {
          "indexed": true,
          "internalType": "address",
          "name": "to",
          "type": "address"
        },
        {
          "indexed": true,
          "internalType": "uint256",
          "name": "tokenId",
          "type": "uint256"
        }
      ],
      "name": "Transfer",
      "type": "event"
    },
    {
      "inputs": [],
      "name": "_noUsers",
      "outputs": [
        {
          "internalType": "uint256",
          "name": "_value",
          "type": "uint256"
        }
      ],
      "stateMutability": "view",
      "type": "function"
    },
    {
      "inputs": [
        {
          "internalType": "address",
          "name": "to",
          "type": "address"
        },
        {
          "internalType": "uint256",
          "name": "tokenId",
          "type": "uint256"
        }
      ],
      "name": "approve",
      "outputs": [],
      "stateMutability": "nonpayable",
      "type": "function"
    },
    {
      "inputs": [
        {
          "internalType": "address",
          "name": "owner",
          "type": "address"
        }
      ],
      "name": "balanceOf",
      "outputs": [
        {
          "internalType": "uint256",
          "name": "",
          "type": "uint256"
        }
      ],
      "stateMutability": "view",
      "type": "function"
    },
    {
      "inputs": [],
      "name": "fetchUserAddresses",
      "outputs": [
        {
          "internalType": "address[]",
          "name": "",
          "type": "address[]"
        }
      ],
      "stateMutability": "view",
      "type": "function"
    },
    {
      "inputs": [],
      "name": "fetchUsers",
      "outputs": [
        {
          "components": [
            {
              "internalType": "uint256",
              "name": "userId",
              "type": "uint256"
            },
            {
              "internalType": "address",
              "name": "userAddress",
              "type": "address"
            },
            {
              "internalType": "uint256",
              "name": "level",
              "type": "uint256"
            }
          ],
          "internalType": "struct Brainly.User[]",
          "name": "",
          "type": "tuple[]"
        }
      ],
      "stateMutability": "view",
      "type": "function"
    },
    {
      "inputs": [
        {
          "internalType": "uint256",
          "name": "tokenId",
          "type": "uint256"
        }
      ],
      "name": "getApproved",
      "outputs": [
        {
          "internalType": "address",
          "name": "",
          "type": "address"
        }
      ],
      "stateMutability": "view",
      "type": "function"
    },
    {
      "inputs": [
        {
          "internalType": "address",
          "name": "userAddress",
          "type": "address"
        }
      ],
      "name": "getName",
      "outputs": [
        {
          "internalType": "string",
          "name": "",
          "type": "string"
        }
      ],
      "stateMutability": "view",
      "type": "function"
    },
    {
      "inputs": [
        {
          "internalType": "address",
          "name": "userAddress",
          "type": "address"
        }
      ],
      "name": "getUser",
      "outputs": [
        {
          "components": [
            {
              "internalType": "uint256",
              "name": "userId",
              "type": "uint256"
            },
            {
              "internalType": "address",
              "name": "userAddress",
              "type": "address"
            },
            {
              "internalType": "uint256",
              "name": "level",
              "type": "uint256"
            }
          ],
          "internalType": "struct Brainly.User",
          "name": "",
          "type": "tuple"
        }
      ],
      "stateMutability": "view",
      "type": "function"
    },
    {
      "inputs": [
        {
          "internalType": "address",
          "name": "owner",
          "type": "address"
        },
        {
          "internalType": "address",
          "name": "operator",
          "type": "address"
        }
      ],
      "name": "isApprovedForAll",
      "outputs": [
        {
          "internalType": "bool",
          "name": "",
          "type": "bool"
        }
      ],
      "stateMutability": "view",
      "type": "function"
    },
    {
      "inputs": [],
      "name": "isMember",
      "outputs": [
        {
          "internalType": "bool",
          "name": "_bool",
          "type": "bool"
        }
      ],
      "stateMutability": "view",
      "type": "function"
    },
    {
      "inputs": [],
      "name": "mintToken",
      "outputs": [
        {
          "internalType": "uint256",
          "name": "",
          "type": "uint256"
        }
      ],
      "stateMutability": "nonpayable",
      "type": "function"
    },
    {
      "inputs": [],
      "name": "name",
      "outputs": [
        {
          "internalType": "string",
          "name": "",
          "type": "string"
        }
      ],
      "stateMutability": "view",
      "type": "function"
    },
    {
      "inputs": [
        {
          "internalType": "uint256",
          "name": "tokenId",
          "type": "uint256"
        }
      ],
      "name": "ownerOf",
      "outputs": [
        {
          "internalType": "address",
          "name": "",
          "type": "address"
        }
      ],
      "stateMutability": "view",
      "type": "function"
    },
    {
      "inputs": [
        {
          "internalType": "uint256",
          "name": "_level",
          "type": "uint256"
        }
      ],
      "name": "publish",
      "outputs": [],
      "stateMutability": "nonpayable",
      "type": "function"
    },
    {
      "inputs": [
        {
          "internalType": "address",
          "name": "from",
          "type": "address"
        },
        {
          "internalType": "address",
          "name": "to",
          "type": "address"
        },
        {
          "internalType": "uint256",
          "name": "tokenId",
          "type": "uint256"
        }
      ],
      "name": "safeTransferFrom",
      "outputs": [],
      "stateMutability": "nonpayable",
      "type": "function"
    },
    {
      "inputs": [
        {
          "internalType": "address",
          "name": "from",
          "type": "address"
        },
        {
          "internalType": "address",
          "name": "to",
          "type": "address"
        },
        {
          "internalType": "uint256",
          "name": "tokenId",
          "type": "uint256"
        },
        {
          "internalType": "bytes",
          "name": "_data",
          "type": "bytes"
        }
      ],
      "name": "safeTransferFrom",
      "outputs": [],
      "stateMutability": "nonpayable",
      "type": "function"
    },
    {
      "inputs": [
        {
          "internalType": "address",
          "name": "operator",
          "type": "address"
        },
        {
          "internalType": "bool",
          "name": "approved",
          "type": "bool"
        }
      ],
      "name": "setApprovalForAll",
      "outputs": [],
      "stateMutability": "nonpayable",
      "type": "function"
    },
    {
      "inputs": [
        {
          "internalType": "string",
          "name": "name",
          "type": "string"
        }
      ],
      "name": "setName",
      "outputs": [],
      "stateMutability": "nonpayable",
      "type": "function"
    },
    {
      "inputs": [
        {
          "internalType": "bytes4",
          "name": "interfaceId",
          "type": "bytes4"
        }
      ],
      "name": "supportsInterface",
      "outputs": [
        {
          "internalType": "bool",
          "name": "",
          "type": "bool"
        }
      ],
      "stateMutability": "view",
      "type": "function"
    },
    {
      "inputs": [],
      "name": "symbol",
      "outputs": [
        {
          "internalType": "string",
          "name": "",
          "type": "string"
        }
      ],
      "stateMutability": "view",
      "type": "function"
    },
    {
      "inputs": [
        {
          "internalType": "uint256",
          "name": "tokenId",
          "type": "uint256"
        }
      ],
      "name": "tokenURI",
      "outputs": [
        {
          "internalType": "string",
          "name": "",
          "type": "string"
        }
      ],
      "stateMutability": "view",
      "type": "function"
    },
    {
      "inputs": [
        {
          "internalType": "address",
          "name": "from",
          "type": "address"
        },
        {
          "internalType": "address",
          "name": "to",
          "type": "address"
        },
        {
          "internalType": "uint256",
          "name": "tokenId",
          "type": "uint256"
        }
      ],
      "name": "transferFrom",
      "outputs": [],
      "stateMutability": "nonpayable",
      "type": "function"
    }
  ],
  "bytecode": "0x60806040523480156200001157600080fd5b506040518060400160405280601881526020017f427261696e6c79204d656d6265727368697020546f6b656e00000000000000008152506040518060400160405280600381526020017f424d540000000000000000000000000000000000000000000000000000000000815250816000908051906020019062000096929190620000b8565b508060019080519060200190620000af929190620000b8565b505050620001cd565b828054620000c69062000168565b90600052602060002090601f016020900481019282620000ea576000855562000136565b82601f106200010557805160ff191683800117855562000136565b8280016001018555821562000136579182015b828111156200013557825182559160200191906001019062000118565b5b50905062000145919062000149565b5090565b5b80821115620001645760008160009055506001016200014a565b5090565b600060028204905060018216806200018157607f821691505b602082108114156200019857620001976200019e565b5b50919050565b7f4e487b7100000000000000000000000000000000000000000000000000000000600052602260045260246000fd5b61393b80620001dd6000396000f3fe608060405234801561001057600080fd5b50600436106101425760003560e01c806395d89b41116100b8578063bfcad4331161007c578063bfcad43314610389578063c47f0027146103a7578063c87b56dd146103c3578063cc4ef119146103f3578063d02982cf1461040f578063e985e9c51461042d57610142565b806395d89b41146102f75780639cc49bb914610315578063a04bfbfd14610333578063a22cb46514610351578063b88d4fde1461036d57610142565b806323b872dd1161010a57806323b872dd146101ff57806342842e0e1461021b5780635fd4b08a146102375780636352211e146102675780636f77926b1461029757806370a08231146102c757610142565b806301ffc9a71461014757806306fdde0314610177578063081812fc14610195578063095ea7b3146101c55780632004ffd9146101e1575b600080fd5b610161600480360381019061015c91906125df565b61045d565b60405161016e9190612c58565b60405180910390f35b61017f61053f565b60405161018c9190612c73565b60405180910390f35b6101af60048036038101906101aa9190612682565b6105d1565b6040516101bc9190612b84565b60405180910390f35b6101df60048036038101906101da919061259f565b610656565b005b6101e961076e565b6040516101f69190612ed0565b60405180910390f35b61021960048036038101906102149190612489565b610939565b005b61023560048036038101906102309190612489565b610999565b005b610251600480360381019061024c919061241c565b6109b9565b60405161025e9190612c73565b60405180910390f35b610281600480360381019061027c9190612682565b610a8a565b60405161028e9190612b84565b60405180910390f35b6102b160048036038101906102ac919061241c565b610b3c565b6040516102be9190612eb5565b60405180910390f35b6102e160048036038101906102dc919061241c565b610bff565b6040516102ee9190612ed0565b60405180910390f35b6102ff610cb7565b60405161030c9190612c73565b60405180910390f35b61031d610d49565b60405161032a9190612ed0565b60405180910390f35b61033b610d55565b6040516103489190612c14565b60405180910390f35b61036b6004803603810190610366919061255f565b610de3565b005b610387600480360381019061038291906124dc565b610df9565b005b610391610e5b565b60405161039e9190612c36565b60405180910390f35b6103c160048036038101906103bc9190612639565b61101c565b005b6103dd60048036038101906103d89190612682565b611073565b6040516103ea9190612c73565b60405180910390f35b61040d60048036038101906104089190612682565b6111c5565b005b610417611371565b6040516104249190612c58565b60405180910390f35b61044760048036038101906104429190612449565b61141e565b6040516104549190612c58565b60405180910390f35b60007f80ac58cd000000000000000000000000000000000000000000000000000000007bffffffffffffffffffffffffffffffffffffffffffffffffffffffff1916827bffffffffffffffffffffffffffffffffffffffffffffffffffffffff1916148061052857507f5b5e139f000000000000000000000000000000000000000000000000000000007bffffffffffffffffffffffffffffffffffffffffffffffffffffffff1916827bffffffffffffffffffffffffffffffffffffffffffffffffffffffff1916145b806105385750610537826114b2565b5b9050919050565b60606000805461054e90613198565b80601f016020809104026020016040519081016040528092919081815260200182805461057a90613198565b80156105c75780601f1061059c576101008083540402835291602001916105c7565b820191906000526020600020905b8154815290600101906020018083116105aa57829003601f168201915b5050505050905090565b60006105dc8261151c565b61061b576040517f08c379a000000000000000000000000000000000000000000000000000000000815260040161061290612e15565b60405180910390fd5b6004600083815260200190815260200160002060009054906101000a900473ffffffffffffffffffffffffffffffffffffffff169050919050565b600061066182610a8a565b90508073ffffffffffffffffffffffffffffffffffffffff168373ffffffffffffffffffffffffffffffffffffffff1614156106d2576040517f08c379a00000000000000000000000000000000000000000000000000000000081526004016106c990612e75565b60405180910390fd5b8073ffffffffffffffffffffffffffffffffffffffff166106f1611588565b73ffffffffffffffffffffffffffffffffffffffff161480610720575061071f8161071a611588565b61141e565b5b61075f576040517f08c379a000000000000000000000000000000000000000000000000000000000815260040161075690612d55565b60405180910390fd5b6107698383611590565b505050565b600061077a6008611649565b6107846007611649565b6000610790600761165f565b905060405180606001604052806107a7600861165f565b81526020013373ffffffffffffffffffffffffffffffffffffffff1681526020016000815250600b60003373ffffffffffffffffffffffffffffffffffffffff1673ffffffffffffffffffffffffffffffffffffffff1681526020019081526020016000206000820151816000015560208201518160010160006101000a81548173ffffffffffffffffffffffffffffffffffffffff021916908373ffffffffffffffffffffffffffffffffffffffff160217905550604082015181600201559050506009339080600181540180825580915050600190039060005260206000200160009091909190916101000a81548173ffffffffffffffffffffffffffffffffffffffff021916908373ffffffffffffffffffffffffffffffffffffffff1602179055506108d7338261166d565b6108f9816040518060800160405280605781526020016138af6057913961168b565b7febb98688741ffa4c7589bf325de30cf7becb63de567842e1ccdb6cb949fdc82c338260405161092a929190612beb565b60405180910390a18091505090565b61094a610944611588565b826116ff565b610989576040517f08c379a000000000000000000000000000000000000000000000000000000000815260040161098090612e95565b60405180910390fd5b6109948383836117dd565b505050565b6109b483838360405180602001604052806000815250610df9565b505050565b6060600c60008373ffffffffffffffffffffffffffffffffffffffff1673ffffffffffffffffffffffffffffffffffffffff1681526020019081526020016000208054610a0590613198565b80601f0160208091040260200160405190810160405280929190818152602001828054610a3190613198565b8015610a7e5780601f10610a5357610100808354040283529160200191610a7e565b820191906000526020600020905b815481529060010190602001808311610a6157829003601f168201915b50505050509050919050565b6000806002600084815260200190815260200160002060009054906101000a900473ffffffffffffffffffffffffffffffffffffffff169050600073ffffffffffffffffffffffffffffffffffffffff168173ffffffffffffffffffffffffffffffffffffffff161415610b33576040517f08c379a0000000000000000000000000000000000000000000000000000000008152600401610b2a90612d95565b60405180910390fd5b80915050919050565b610b446121f9565b600b60008373ffffffffffffffffffffffffffffffffffffffff1673ffffffffffffffffffffffffffffffffffffffff168152602001908152602001600020604051806060016040529081600082015481526020016001820160009054906101000a900473ffffffffffffffffffffffffffffffffffffffff1673ffffffffffffffffffffffffffffffffffffffff1673ffffffffffffffffffffffffffffffffffffffff1681526020016002820154815250509050919050565b60008073ffffffffffffffffffffffffffffffffffffffff168273ffffffffffffffffffffffffffffffffffffffff161415610c70576040517f08c379a0000000000000000000000000000000000000000000000000000000008152600401610c6790612d75565b60405180910390fd5b600360008373ffffffffffffffffffffffffffffffffffffffff1673ffffffffffffffffffffffffffffffffffffffff168152602001908152602001600020549050919050565b606060018054610cc690613198565b80601f0160208091040260200160405190810160405280929190818152602001828054610cf290613198565b8015610d3f5780601f10610d1457610100808354040283529160200191610d3f565b820191906000526020600020905b815481529060010190602001808311610d2257829003601f168201915b5050505050905090565b60088060000154905081565b60606009805480602002602001604051908101604052809291908181526020018280548015610dd957602002820191906000526020600020905b8160009054906101000a900473ffffffffffffffffffffffffffffffffffffffff1673ffffffffffffffffffffffffffffffffffffffff1681526020019060010190808311610d8f575b5050505050905090565b610df5610dee611588565b8383611a39565b5050565b610e0a610e04611588565b836116ff565b610e49576040517f08c379a0000000000000000000000000000000000000000000000000000000008152600401610e4090612e95565b60405180910390fd5b610e5584848484611ba6565b50505050565b60606000610e69600861165f565b90506000808267ffffffffffffffff811115610e8857610e87613331565b5b604051908082528060200260200182016040528015610ec157816020015b610eae6121f9565b815260200190600190039081610ea65790505b50905060005b60098054905081101561101257600060098281548110610eea57610ee9613302565b5b9060005260206000200160009054906101000a900473ffffffffffffffffffffffffffffffffffffffff1690506000600b60008373ffffffffffffffffffffffffffffffffffffffff1673ffffffffffffffffffffffffffffffffffffffff168152602001908152602001600020905080604051806060016040529081600082015481526020016001820160009054906101000a900473ffffffffffffffffffffffffffffffffffffffff1673ffffffffffffffffffffffffffffffffffffffff1673ffffffffffffffffffffffffffffffffffffffff168152602001600282015481525050848681518110610fe357610fe2613302565b5b6020026020010181905250600185610ffb9190613027565b94505050808061100a906131fb565b915050610ec7565b5080935050505090565b80600c60003373ffffffffffffffffffffffffffffffffffffffff1673ffffffffffffffffffffffffffffffffffffffff168152602001908152602001600020908051906020019061106f929190612230565b5050565b606061107e8261151c565b6110bd576040517f08c379a00000000000000000000000000000000000000000000000000000000081526004016110b490612df5565b60405180910390fd5b60006006600084815260200190815260200160002080546110dd90613198565b80601f016020809104026020016040519081016040528092919081815260200182805461110990613198565b80156111565780601f1061112b57610100808354040283529160200191611156565b820191906000526020600020905b81548152906001019060200180831161113957829003601f168201915b505050505090506000611167611c02565b905060008151141561117d5781925050506111c0565b6000825111156111b257808260405160200161119a929190612b60565b604051602081830303815290604052925050506111c0565b6111bb84611c19565b925050505b919050565b600073ffffffffffffffffffffffffffffffffffffffff16600b60003373ffffffffffffffffffffffffffffffffffffffff1673ffffffffffffffffffffffffffffffffffffffff16815260200190815260200160002060010160009054906101000a900473ffffffffffffffffffffffffffffffffffffffff1673ffffffffffffffffffffffffffffffffffffffff161415611297576040517f08c379a000000000000000000000000000000000000000000000000000000000815260040161128e90612c95565b60405180910390fd5b60405180606001604052806112ac600861165f565b81526020013373ffffffffffffffffffffffffffffffffffffffff16815260200182815250600b60003373ffffffffffffffffffffffffffffffffffffffff1673ffffffffffffffffffffffffffffffffffffffff1681526020019081526020016000206000820151816000015560208201518160010160006101000a81548173ffffffffffffffffffffffffffffffffffffffff021916908373ffffffffffffffffffffffffffffffffffffffff1602179055506040820151816002015590505050565b600080600090505b600980549050811015611415573373ffffffffffffffffffffffffffffffffffffffff16600982815481106113b1576113b0613302565b5b9060005260206000200160009054906101000a900473ffffffffffffffffffffffffffffffffffffffff1673ffffffffffffffffffffffffffffffffffffffff16141561140257600191505061141b565b808061140d906131fb565b915050611379565b50600090505b90565b6000600560008473ffffffffffffffffffffffffffffffffffffffff1673ffffffffffffffffffffffffffffffffffffffff16815260200190815260200160002060008373ffffffffffffffffffffffffffffffffffffffff1673ffffffffffffffffffffffffffffffffffffffff16815260200190815260200160002060009054906101000a900460ff16905092915050565b60007f01ffc9a7000000000000000000000000000000000000000000000000000000007bffffffffffffffffffffffffffffffffffffffffffffffffffffffff1916827bffffffffffffffffffffffffffffffffffffffffffffffffffffffff1916149050919050565b60008073ffffffffffffffffffffffffffffffffffffffff166002600084815260200190815260200160002060009054906101000a900473ffffffffffffffffffffffffffffffffffffffff1673ffffffffffffffffffffffffffffffffffffffff1614159050919050565b600033905090565b816004600083815260200190815260200160002060006101000a81548173ffffffffffffffffffffffffffffffffffffffff021916908373ffffffffffffffffffffffffffffffffffffffff160217905550808273ffffffffffffffffffffffffffffffffffffffff1661160383610a8a565b73ffffffffffffffffffffffffffffffffffffffff167f8c5be1e5ebec7d5bd14f71427d1e84f3dd0314c0f7b2291e5b200ac8c7c3b92560405160405180910390a45050565b6001816000016000828254019250508190555050565b600081600001549050919050565b611687828260405180602001604052806000815250611cc0565b5050565b6116948261151c565b6116d3576040517f08c379a00000000000000000000000000000000000000000000000000000000081526004016116ca90612db5565b60405180910390fd5b806006600084815260200190815260200160002090805190602001906116fa929190612230565b505050565b600061170a8261151c565b611749576040517f08c379a000000000000000000000000000000000000000000000000000000000815260040161174090612d35565b60405180910390fd5b600061175483610a8a565b90508073ffffffffffffffffffffffffffffffffffffffff168473ffffffffffffffffffffffffffffffffffffffff1614806117c357508373ffffffffffffffffffffffffffffffffffffffff166117ab846105d1565b73ffffffffffffffffffffffffffffffffffffffff16145b806117d457506117d3818561141e565b5b91505092915050565b8273ffffffffffffffffffffffffffffffffffffffff166117fd82610a8a565b73ffffffffffffffffffffffffffffffffffffffff1614611853576040517f08c379a000000000000000000000000000000000000000000000000000000000815260040161184a90612e35565b60405180910390fd5b600073ffffffffffffffffffffffffffffffffffffffff168273ffffffffffffffffffffffffffffffffffffffff1614156118c3576040517f08c379a00000000000000000000000000000000000000000000000000000000081526004016118ba90612cf5565b60405180910390fd5b6118ce838383611d1b565b6118d9600082611590565b6001600360008573ffffffffffffffffffffffffffffffffffffffff1673ffffffffffffffffffffffffffffffffffffffff168152602001908152602001600020600082825461192991906130ae565b925050819055506001600360008473ffffffffffffffffffffffffffffffffffffffff1673ffffffffffffffffffffffffffffffffffffffff16815260200190815260200160002060008282546119809190613027565b92505081905550816002600083815260200190815260200160002060006101000a81548173ffffffffffffffffffffffffffffffffffffffff021916908373ffffffffffffffffffffffffffffffffffffffff160217905550808273ffffffffffffffffffffffffffffffffffffffff168473ffffffffffffffffffffffffffffffffffffffff167fddf252ad1be2c89b69c2b068fc378daa952ba7f163c4a11628f55a4df523b3ef60405160405180910390a4505050565b8173ffffffffffffffffffffffffffffffffffffffff168373ffffffffffffffffffffffffffffffffffffffff161415611aa8576040517f08c379a0000000000000000000000000000000000000000000000000000000008152600401611a9f90612d15565b60405180910390fd5b80600560008573ffffffffffffffffffffffffffffffffffffffff1673ffffffffffffffffffffffffffffffffffffffff16815260200190815260200160002060008473ffffffffffffffffffffffffffffffffffffffff1673ffffffffffffffffffffffffffffffffffffffff16815260200190815260200160002060006101000a81548160ff0219169083151502179055508173ffffffffffffffffffffffffffffffffffffffff168373ffffffffffffffffffffffffffffffffffffffff167f17307eab39ab6107e8899845ad3d59bd9653f200f220920489ca2b5937696c3183604051611b999190612c58565b60405180910390a3505050565b611bb18484846117dd565b611bbd84848484611d20565b611bfc576040517f08c379a0000000000000000000000000000000000000000000000000000000008152600401611bf390612cb5565b60405180910390fd5b50505050565b606060405180602001604052806000815250905090565b6060611c248261151c565b611c63576040517f08c379a0000000000000000000000000000000000000000000000000000000008152600401611c5a90612e55565b60405180910390fd5b6000611c6d611c02565b90506000815111611c8d5760405180602001604052806000815250611cb8565b80611c9784611eb7565b604051602001611ca8929190612b60565b6040516020818303038152906040525b915050919050565b611cca8383612018565b611cd76000848484611d20565b611d16576040517f08c379a0000000000000000000000000000000000000000000000000000000008152600401611d0d90612cb5565b60405180910390fd5b505050565b505050565b6000611d418473ffffffffffffffffffffffffffffffffffffffff166121e6565b15611eaa578373ffffffffffffffffffffffffffffffffffffffff1663150b7a02611d6a611588565b8786866040518563ffffffff1660e01b8152600401611d8c9493929190612b9f565b602060405180830381600087803b158015611da657600080fd5b505af1925050508015611dd757506040513d601f19601f82011682018060405250810190611dd4919061260c565b60015b611e5a573d8060008114611e07576040519150601f19603f3d011682016040523d82523d6000602084013e611e0c565b606091505b50600081511415611e52576040517f08c379a0000000000000000000000000000000000000000000000000000000008152600401611e4990612cb5565b60405180910390fd5b805181602001fd5b63150b7a0260e01b7bffffffffffffffffffffffffffffffffffffffffffffffffffffffff1916817bffffffffffffffffffffffffffffffffffffffffffffffffffffffff191614915050611eaf565b600190505b949350505050565b60606000821415611eff576040518060400160405280600181526020017f30000000000000000000000000000000000000000000000000000000000000008152509050612013565b600082905060005b60008214611f31578080611f1a906131fb565b915050600a82611f2a919061307d565b9150611f07565b60008167ffffffffffffffff811115611f4d57611f4c613331565b5b6040519080825280601f01601f191660200182016040528015611f7f5781602001600182028036833780820191505090505b5090505b6000851461200c57600182611f9891906130ae565b9150600a85611fa79190613244565b6030611fb39190613027565b60f81b818381518110611fc957611fc8613302565b5b60200101907effffffffffffffffffffffffffffffffffffffffffffffffffffffffffffff1916908160001a905350600a85612005919061307d565b9450611f83565b8093505050505b919050565b600073ffffffffffffffffffffffffffffffffffffffff168273ffffffffffffffffffffffffffffffffffffffff161415612088576040517f08c379a000000000000000000000000000000000000000000000000000000000815260040161207f90612dd5565b60405180910390fd5b6120918161151c565b156120d1576040517f08c379a00000000000000000000000000000000000000000000000000000000081526004016120c890612cd5565b60405180910390fd5b6120dd60008383611d1b565b6001600360008473ffffffffffffffffffffffffffffffffffffffff1673ffffffffffffffffffffffffffffffffffffffff168152602001908152602001600020600082825461212d9190613027565b92505081905550816002600083815260200190815260200160002060006101000a81548173ffffffffffffffffffffffffffffffffffffffff021916908373ffffffffffffffffffffffffffffffffffffffff160217905550808273ffffffffffffffffffffffffffffffffffffffff16600073ffffffffffffffffffffffffffffffffffffffff167fddf252ad1be2c89b69c2b068fc378daa952ba7f163c4a11628f55a4df523b3ef60405160405180910390a45050565b600080823b905060008111915050919050565b604051806060016040528060008152602001600073ffffffffffffffffffffffffffffffffffffffff168152602001600081525090565b82805461223c90613198565b90600052602060002090601f01602090048101928261225e57600085556122a5565b82601f1061227757805160ff19168380011785556122a5565b828001600101855582156122a5579182015b828111156122a4578251825591602001919060010190612289565b5b5090506122b291906122b6565b5090565b5b808211156122cf5760008160009055506001016122b7565b5090565b60006122e66122e184612f10565b612eeb565b90508281526020810184848401111561230257612301613365565b5b61230d848285613156565b509392505050565b600061232861232384612f41565b612eeb565b90508281526020810184848401111561234457612343613365565b5b61234f848285613156565b509392505050565b60008135905061236681613852565b92915050565b60008135905061237b81613869565b92915050565b60008135905061239081613880565b92915050565b6000815190506123a581613880565b92915050565b600082601f8301126123c0576123bf613360565b5b81356123d08482602086016122d3565b91505092915050565b600082601f8301126123ee576123ed613360565b5b81356123fe848260208601612315565b91505092915050565b60008135905061241681613897565b92915050565b6000602082840312156124325761243161336f565b5b600061244084828501612357565b91505092915050565b600080604083850312156124605761245f61336f565b5b600061246e85828601612357565b925050602061247f85828601612357565b9150509250929050565b6000806000606084860312156124a2576124a161336f565b5b60006124b086828701612357565b93505060206124c186828701612357565b92505060406124d286828701612407565b9150509250925092565b600080600080608085870312156124f6576124f561336f565b5b600061250487828801612357565b945050602061251587828801612357565b935050604061252687828801612407565b925050606085013567ffffffffffffffff8111156125475761254661336a565b5b612553878288016123ab565b91505092959194509250565b600080604083850312156125765761257561336f565b5b600061258485828601612357565b92505060206125958582860161236c565b9150509250929050565b600080604083850312156125b6576125b561336f565b5b60006125c485828601612357565b92505060206125d585828601612407565b9150509250929050565b6000602082840312156125f5576125f461336f565b5b600061260384828501612381565b91505092915050565b6000602082840312156126225761262161336f565b5b600061263084828501612396565b91505092915050565b60006020828403121561264f5761264e61336f565b5b600082013567ffffffffffffffff81111561266d5761266c61336a565b5b612679848285016123d9565b91505092915050565b6000602082840312156126985761269761336f565b5b60006126a684828501612407565b91505092915050565b60006126bb83836126df565b60208301905092915050565b60006126d38383612abe565b60608301905092915050565b6126e8816130e2565b82525050565b6126f7816130e2565b82525050565b600061270882612f92565b6127128185612fd8565b935061271d83612f72565b8060005b8381101561274e57815161273588826126af565b975061274083612fbe565b925050600181019050612721565b5085935050505092915050565b600061276682612f9d565b6127708185612fe9565b935061277b83612f82565b8060005b838110156127ac57815161279388826126c7565b975061279e83612fcb565b92505060018101905061277f565b5085935050505092915050565b6127c2816130f4565b82525050565b60006127d382612fa8565b6127dd8185612ffa565b93506127ed818560208601613165565b6127f681613374565b840191505092915050565b600061280c82612fb3565b612816818561300b565b9350612826818560208601613165565b61282f81613374565b840191505092915050565b600061284582612fb3565b61284f818561301c565b935061285f818560208601613165565b80840191505092915050565b600061287860278361300b565b915061288382613385565b604082019050919050565b600061289b60328361300b565b91506128a6826133d4565b604082019050919050565b60006128be601c8361300b565b91506128c982613423565b602082019050919050565b60006128e160248361300b565b91506128ec8261344c565b604082019050919050565b600061290460198361300b565b915061290f8261349b565b602082019050919050565b6000612927602c8361300b565b9150612932826134c4565b604082019050919050565b600061294a60388361300b565b915061295582613513565b604082019050919050565b600061296d602a8361300b565b915061297882613562565b604082019050919050565b600061299060298361300b565b915061299b826135b1565b604082019050919050565b60006129b3602e8361300b565b91506129be82613600565b604082019050919050565b60006129d660208361300b565b91506129e18261364f565b602082019050919050565b60006129f960318361300b565b9150612a0482613678565b604082019050919050565b6000612a1c602c8361300b565b9150612a27826136c7565b604082019050919050565b6000612a3f60298361300b565b9150612a4a82613716565b604082019050919050565b6000612a62602f8361300b565b9150612a6d82613765565b604082019050919050565b6000612a8560218361300b565b9150612a90826137b4565b604082019050919050565b6000612aa860318361300b565b9150612ab382613803565b604082019050919050565b606082016000820151612ad46000850182612b42565b506020820151612ae760208501826126df565b506040820151612afa6040850182612b42565b50505050565b606082016000820151612b166000850182612b42565b506020820151612b2960208501826126df565b506040820151612b3c6040850182612b42565b50505050565b612b4b8161314c565b82525050565b612b5a8161314c565b82525050565b6000612b6c828561283a565b9150612b78828461283a565b91508190509392505050565b6000602082019050612b9960008301846126ee565b92915050565b6000608082019050612bb460008301876126ee565b612bc160208301866126ee565b612bce6040830185612b51565b8181036060830152612be081846127c8565b905095945050505050565b6000604082019050612c0060008301856126ee565b612c0d6020830184612b51565b9392505050565b60006020820190508181036000830152612c2e81846126fd565b905092915050565b60006020820190508181036000830152612c50818461275b565b905092915050565b6000602082019050612c6d60008301846127b9565b92915050565b60006020820190508181036000830152612c8d8184612801565b905092915050565b60006020820190508181036000830152612cae8161286b565b9050919050565b60006020820190508181036000830152612cce8161288e565b9050919050565b60006020820190508181036000830152612cee816128b1565b9050919050565b60006020820190508181036000830152612d0e816128d4565b9050919050565b60006020820190508181036000830152612d2e816128f7565b9050919050565b60006020820190508181036000830152612d4e8161291a565b9050919050565b60006020820190508181036000830152612d6e8161293d565b9050919050565b60006020820190508181036000830152612d8e81612960565b9050919050565b60006020820190508181036000830152612dae81612983565b9050919050565b60006020820190508181036000830152612dce816129a6565b9050919050565b60006020820190508181036000830152612dee816129c9565b9050919050565b60006020820190508181036000830152612e0e816129ec565b9050919050565b60006020820190508181036000830152612e2e81612a0f565b9050919050565b60006020820190508181036000830152612e4e81612a32565b9050919050565b60006020820190508181036000830152612e6e81612a55565b9050919050565b60006020820190508181036000830152612e8e81612a78565b9050919050565b60006020820190508181036000830152612eae81612a9b565b9050919050565b6000606082019050612eca6000830184612b00565b92915050565b6000602082019050612ee56000830184612b51565b92915050565b6000612ef5612f06565b9050612f0182826131ca565b919050565b6000604051905090565b600067ffffffffffffffff821115612f2b57612f2a613331565b5b612f3482613374565b9050602081019050919050565b600067ffffffffffffffff821115612f5c57612f5b613331565b5b612f6582613374565b9050602081019050919050565b6000819050602082019050919050565b6000819050602082019050919050565b600081519050919050565b600081519050919050565b600081519050919050565b600081519050919050565b6000602082019050919050565b6000602082019050919050565b600082825260208201905092915050565b600082825260208201905092915050565b600082825260208201905092915050565b600082825260208201905092915050565b600081905092915050565b60006130328261314c565b915061303d8361314c565b9250827fffffffffffffffffffffffffffffffffffffffffffffffffffffffffffffffff0382111561307257613071613275565b5b828201905092915050565b60006130888261314c565b91506130938361314c565b9250826130a3576130a26132a4565b5b828204905092915050565b60006130b98261314c565b91506130c48361314c565b9250828210156130d7576130d6613275565b5b828203905092915050565b60006130ed8261312c565b9050919050565b60008115159050919050565b60007fffffffff0000000000000000000000000000000000000000000000000000000082169050919050565b600073ffffffffffffffffffffffffffffffffffffffff82169050919050565b6000819050919050565b82818337600083830152505050565b60005b83811015613183578082015181840152602081019050613168565b83811115613192576000848401525b50505050565b600060028204905060018216806131b057607f821691505b602082108114156131c4576131c36132d3565b5b50919050565b6131d382613374565b810181811067ffffffffffffffff821117156131f2576131f1613331565b5b80604052505050565b60006132068261314c565b91507fffffffffffffffffffffffffffffffffffffffffffffffffffffffffffffffff82141561323957613238613275565b5b600182019050919050565b600061324f8261314c565b915061325a8361314c565b92508261326a576132696132a4565b5b828206905092915050565b7f4e487b7100000000000000000000000000000000000000000000000000000000600052601160045260246000fd5b7f4e487b7100000000000000000000000000000000000000000000000000000000600052601260045260246000fd5b7f4e487b7100000000000000000000000000000000000000000000000000000000600052602260045260246000fd5b7f4e487b7100000000000000000000000000000000000000000000000000000000600052603260045260246000fd5b7f4e487b7100000000000000000000000000000000000000000000000000000000600052604160045260246000fd5b600080fd5b600080fd5b600080fd5b600080fd5b6000601f19601f8301169050919050565b7f4d696e74206d656d6265727368697020746f6b656e20746f2062652061626c6560008201527f20746f206d696e00000000000000000000000000000000000000000000000000602082015250565b7f4552433732313a207472616e7366657220746f206e6f6e20455243373231526560008201527f63656976657220696d706c656d656e7465720000000000000000000000000000602082015250565b7f4552433732313a20746f6b656e20616c7265616479206d696e74656400000000600082015250565b7f4552433732313a207472616e7366657220746f20746865207a65726f2061646460008201527f7265737300000000000000000000000000000000000000000000000000000000602082015250565b7f4552433732313a20617070726f766520746f2063616c6c657200000000000000600082015250565b7f4552433732313a206f70657261746f7220717565727920666f72206e6f6e657860008201527f697374656e7420746f6b656e0000000000000000000000000000000000000000602082015250565b7f4552433732313a20617070726f76652063616c6c6572206973206e6f74206f7760008201527f6e6572206e6f7220617070726f76656420666f7220616c6c0000000000000000602082015250565b7f4552433732313a2062616c616e636520717565727920666f7220746865207a6560008201527f726f206164647265737300000000000000000000000000000000000000000000602082015250565b7f4552433732313a206f776e657220717565727920666f72206e6f6e657869737460008201527f656e7420746f6b656e0000000000000000000000000000000000000000000000602082015250565b7f45524337323155524953746f726167653a2055524920736574206f66206e6f6e60008201527f6578697374656e7420746f6b656e000000000000000000000000000000000000602082015250565b7f4552433732313a206d696e7420746f20746865207a65726f2061646472657373600082015250565b7f45524337323155524953746f726167653a2055524920717565727920666f722060008201527f6e6f6e6578697374656e7420746f6b656e000000000000000000000000000000602082015250565b7f4552433732313a20617070726f76656420717565727920666f72206e6f6e657860008201527f697374656e7420746f6b656e0000000000000000000000000000000000000000602082015250565b7f4552433732313a207472616e73666572206f6620746f6b656e2074686174206960008201527f73206e6f74206f776e0000000000000000000000000000000000000000000000602082015250565b7f4552433732314d657461646174613a2055524920717565727920666f72206e6f60008201527f6e6578697374656e7420746f6b656e0000000000000000000000000000000000602082015250565b7f4552433732313a20617070726f76616c20746f2063757272656e74206f776e6560008201527f7200000000000000000000000000000000000000000000000000000000000000602082015250565b7f4552433732313a207472616e736665722063616c6c6572206973206e6f74206f60008201527f776e6572206e6f7220617070726f766564000000000000000000000000000000602082015250565b61385b816130e2565b811461386657600080fd5b50565b613872816130f4565b811461387d57600080fd5b50565b61388981613100565b811461389457600080fd5b50565b6138a08161314c565b81146138ab57600080fd5b5056fe68747470733a2f2f676174657761792e70696e6174612e636c6f75642f697066732f516d544a6454677776444c6e345652476d696f6e326f773834793465786a3453504b6a4e637747706944787541652f302e6a736f6ea26469706673582212206ef9bdc39a956bdaaf3bf72e246154c66391b73b4fc03ec33fe471e6d40a50ea64736f6c63430008070033",
  "linkReferences": {},
  "deployedLinkReferences": {}
}