{
  "_format": "hh-sol-artifact-1",
  "contractName": "Brainly",
  "sourceName": "contracts/Brainly.sol",
  "abi": [
    {
      "inputs": [],
      "stateMutability": "nonpayable",
      "type": "constructor"
    },
    {
      "anonymous": false,
      "inputs": [
        {
          "indexed": true,
          "internalType": "address",
          "name": "owner",
          "type": "address"
        },
        {
          "indexed": true,
          "internalType": "address",
          "name": "approved",
          "type": "address"
        },
        {
          "indexed": true,
          "internalType": "uint256",
          "name": "tokenId",
          "type": "uint256"
        }
      ],
      "name": "Approval",
      "type": "event"
    },
    {
      "anonymous": false,
      "inputs": [
        {
          "indexed": true,
          "internalType": "address",
          "name": "owner",
          "type": "address"
        },
        {
          "indexed": true,
          "internalType": "address",
          "name": "operator",
          "type": "address"
        },
        {
          "indexed": false,
          "internalType": "bool",
          "name": "approved",
          "type": "bool"
        }
      ],
      "name": "ApprovalForAll",
      "type": "event"
    },
    {
      "anonymous": false,
      "inputs": [
        {
          "indexed": false,
          "internalType": "address",
          "name": "sender",
          "type": "address"
        },
        {
          "indexed": false,
          "internalType": "uint256",
          "name": "tokenId",
          "type": "uint256"
        }
      ],
      "name": "NewEpicNFTMinted",
      "type": "event"
    },
    {
      "anonymous": false,
      "inputs": [
        {
          "indexed": false,
          "internalType": "uint256",
          "name": "level",
          "type": "uint256"
        }
      ],
      "name": "Publish",
      "type": "event"
    },
    {
      "anonymous": false,
      "inputs": [
        {
          "indexed": false,
          "internalType": "string",
          "name": "name",
          "type": "string"
        }
      ],
      "name": "SetName",
      "type": "event"
    },
    {
      "anonymous": false,
      "inputs": [
        {
          "indexed": true,
          "internalType": "address",
          "name": "from",
          "type": "address"
        },
        {
          "indexed": true,
          "internalType": "address",
          "name": "to",
          "type": "address"
        },
        {
          "indexed": true,
          "internalType": "uint256",
          "name": "tokenId",
          "type": "uint256"
        }
      ],
      "name": "Transfer",
      "type": "event"
    },
    {
      "inputs": [],
      "name": "_noUsers",
      "outputs": [
        {
          "internalType": "uint256",
          "name": "_value",
          "type": "uint256"
        }
      ],
      "stateMutability": "view",
      "type": "function"
    },
    {
      "inputs": [
        {
          "internalType": "address",
          "name": "to",
          "type": "address"
        },
        {
          "internalType": "uint256",
          "name": "tokenId",
          "type": "uint256"
        }
      ],
      "name": "approve",
      "outputs": [],
      "stateMutability": "nonpayable",
      "type": "function"
    },
    {
      "inputs": [
        {
          "internalType": "address",
          "name": "owner",
          "type": "address"
        }
      ],
      "name": "balanceOf",
      "outputs": [
        {
          "internalType": "uint256",
          "name": "",
          "type": "uint256"
        }
      ],
      "stateMutability": "view",
      "type": "function"
    },
    {
      "inputs": [],
      "name": "fetchUserAddresses",
      "outputs": [
        {
          "internalType": "address[]",
          "name": "",
          "type": "address[]"
        }
      ],
      "stateMutability": "view",
      "type": "function"
    },
    {
      "inputs": [],
      "name": "fetchUsers",
      "outputs": [
        {
          "components": [
            {
              "internalType": "uint256",
              "name": "userId",
              "type": "uint256"
            },
            {
              "internalType": "address",
              "name": "userAddress",
              "type": "address"
            },
            {
              "internalType": "uint256",
              "name": "level",
              "type": "uint256"
            }
          ],
          "internalType": "struct Brainly.User[]",
          "name": "",
          "type": "tuple[]"
        }
      ],
      "stateMutability": "view",
      "type": "function"
    },
    {
      "inputs": [
        {
          "internalType": "uint256",
          "name": "tokenId",
          "type": "uint256"
        }
      ],
      "name": "getApproved",
      "outputs": [
        {
          "internalType": "address",
          "name": "",
          "type": "address"
        }
      ],
      "stateMutability": "view",
      "type": "function"
    },
    {
      "inputs": [
        {
          "internalType": "address",
          "name": "userAddress",
          "type": "address"
        }
      ],
      "name": "getName",
      "outputs": [
        {
          "internalType": "string",
          "name": "",
          "type": "string"
        }
      ],
      "stateMutability": "view",
      "type": "function"
    },
    {
      "inputs": [
        {
          "internalType": "address",
          "name": "userAddress",
          "type": "address"
        }
      ],
      "name": "getUser",
      "outputs": [
        {
          "components": [
            {
              "internalType": "uint256",
              "name": "userId",
              "type": "uint256"
            },
            {
              "internalType": "address",
              "name": "userAddress",
              "type": "address"
            },
            {
              "internalType": "uint256",
              "name": "level",
              "type": "uint256"
            }
          ],
          "internalType": "struct Brainly.User",
          "name": "",
          "type": "tuple"
        }
      ],
      "stateMutability": "view",
      "type": "function"
    },
    {
      "inputs": [
        {
          "internalType": "address",
          "name": "owner",
          "type": "address"
        },
        {
          "internalType": "address",
          "name": "operator",
          "type": "address"
        }
      ],
      "name": "isApprovedForAll",
      "outputs": [
        {
          "internalType": "bool",
          "name": "",
          "type": "bool"
        }
      ],
      "stateMutability": "view",
      "type": "function"
    },
    {
      "inputs": [],
      "name": "isMember",
      "outputs": [
        {
          "internalType": "bool",
          "name": "_bool",
          "type": "bool"
        }
      ],
      "stateMutability": "view",
      "type": "function"
    },
    {
      "inputs": [],
      "name": "mintToken",
      "outputs": [
        {
          "internalType": "uint256",
          "name": "",
          "type": "uint256"
        }
      ],
      "stateMutability": "nonpayable",
      "type": "function"
    },
    {
      "inputs": [],
      "name": "name",
      "outputs": [
        {
          "internalType": "string",
          "name": "",
          "type": "string"
        }
      ],
      "stateMutability": "view",
      "type": "function"
    },
    {
      "inputs": [
        {
          "internalType": "uint256",
          "name": "tokenId",
          "type": "uint256"
        }
      ],
      "name": "ownerOf",
      "outputs": [
        {
          "internalType": "address",
          "name": "",
          "type": "address"
        }
      ],
      "stateMutability": "view",
      "type": "function"
    },
    {
      "inputs": [
        {
          "internalType": "uint256",
          "name": "_level",
          "type": "uint256"
        }
      ],
      "name": "publish",
      "outputs": [],
      "stateMutability": "nonpayable",
      "type": "function"
    },
    {
      "inputs": [
        {
          "internalType": "address",
          "name": "from",
          "type": "address"
        },
        {
          "internalType": "address",
          "name": "to",
          "type": "address"
        },
        {
          "internalType": "uint256",
          "name": "tokenId",
          "type": "uint256"
        }
      ],
      "name": "safeTransferFrom",
      "outputs": [],
      "stateMutability": "nonpayable",
      "type": "function"
    },
    {
      "inputs": [
        {
          "internalType": "address",
          "name": "from",
          "type": "address"
        },
        {
          "internalType": "address",
          "name": "to",
          "type": "address"
        },
        {
          "internalType": "uint256",
          "name": "tokenId",
          "type": "uint256"
        },
        {
          "internalType": "bytes",
          "name": "_data",
          "type": "bytes"
        }
      ],
      "name": "safeTransferFrom",
      "outputs": [],
      "stateMutability": "nonpayable",
      "type": "function"
    },
    {
      "inputs": [
        {
          "internalType": "address",
          "name": "operator",
          "type": "address"
        },
        {
          "internalType": "bool",
          "name": "approved",
          "type": "bool"
        }
      ],
      "name": "setApprovalForAll",
      "outputs": [],
      "stateMutability": "nonpayable",
      "type": "function"
    },
    {
      "inputs": [
        {
          "internalType": "string",
          "name": "name",
          "type": "string"
        }
      ],
      "name": "setName",
      "outputs": [],
      "stateMutability": "nonpayable",
      "type": "function"
    },
    {
      "inputs": [
        {
          "internalType": "bytes4",
          "name": "interfaceId",
          "type": "bytes4"
        }
      ],
      "name": "supportsInterface",
      "outputs": [
        {
          "internalType": "bool",
          "name": "",
          "type": "bool"
        }
      ],
      "stateMutability": "view",
      "type": "function"
    },
    {
      "inputs": [],
      "name": "symbol",
      "outputs": [
        {
          "internalType": "string",
          "name": "",
          "type": "string"
        }
      ],
      "stateMutability": "view",
      "type": "function"
    },
    {
      "inputs": [
        {
          "internalType": "uint256",
          "name": "tokenId",
          "type": "uint256"
        }
      ],
      "name": "tokenURI",
      "outputs": [
        {
          "internalType": "string",
          "name": "",
          "type": "string"
        }
      ],
      "stateMutability": "view",
      "type": "function"
    },
    {
      "inputs": [
        {
          "internalType": "address",
          "name": "from",
          "type": "address"
        },
        {
          "internalType": "address",
          "name": "to",
          "type": "address"
        },
        {
          "internalType": "uint256",
          "name": "tokenId",
          "type": "uint256"
        }
      ],
      "name": "transferFrom",
      "outputs": [],
      "stateMutability": "nonpayable",
      "type": "function"
    }
  ],
  "bytecode": "0x60806040523480156200001157600080fd5b506040518060400160405280601881526020017f427261696e6c79204d656d6265727368697020546f6b656e00000000000000008152506040518060400160405280600381526020017f424d540000000000000000000000000000000000000000000000000000000000815250816000908051906020019062000096929190620000b8565b508060019080519060200190620000af929190620000b8565b505050620001cd565b828054620000c69062000168565b90600052602060002090601f016020900481019282620000ea576000855562000136565b82601f106200010557805160ff191683800117855562000136565b8280016001018555821562000136579182015b828111156200013557825182559160200191906001019062000118565b5b50905062000145919062000149565b5090565b5b80821115620001645760008160009055506001016200014a565b5090565b600060028204905060018216806200018157607f821691505b602082108114156200019857620001976200019e565b5b50919050565b7f4e487b7100000000000000000000000000000000000000000000000000000000600052602260045260246000fd5b613a9e80620001dd6000396000f3fe608060405234801561001057600080fd5b50600436106101425760003560e01c806395d89b41116100b8578063bfcad4331161007c578063bfcad43314610389578063c47f0027146103a7578063c87b56dd146103c3578063cc4ef119146103f3578063d02982cf1461040f578063e985e9c51461042d57610142565b806395d89b41146102f75780639cc49bb914610315578063a04bfbfd14610333578063a22cb46514610351578063b88d4fde1461036d57610142565b806323b872dd1161010a57806323b872dd146101ff57806342842e0e1461021b5780635fd4b08a146102375780636352211e146102675780636f77926b1461029757806370a08231146102c757610142565b806301ffc9a71461014757806306fdde0314610177578063081812fc14610195578063095ea7b3146101c55780632004ffd9146101e1575b600080fd5b610161600480360381019061015c919061268b565b61045d565b60405161016e9190612d84565b60405180910390f35b61017f61053f565b60405161018c9190612d9f565b60405180910390f35b6101af60048036038101906101aa919061272e565b6105d1565b6040516101bc9190612cb0565b60405180910390f35b6101df60048036038101906101da919061264b565b610656565b005b6101e961076e565b6040516101f6919061301e565b60405180910390f35b61021960048036038101906102149190612535565b610939565b005b61023560048036038101906102309190612535565b610999565b005b610251600480360381019061024c91906124c8565b6109b9565b60405161025e9190612d9f565b60405180910390f35b610281600480360381019061027c919061272e565b610a8a565b60405161028e9190612cb0565b60405180910390f35b6102b160048036038101906102ac91906124c8565b610b3c565b6040516102be9190613003565b60405180910390f35b6102e160048036038101906102dc91906124c8565b610bff565b6040516102ee919061301e565b60405180910390f35b6102ff610cb7565b60405161030c9190612d9f565b60405180910390f35b61031d610d49565b60405161032a919061301e565b60405180910390f35b61033b610d55565b6040516103489190612d40565b60405180910390f35b61036b6004803603810190610366919061260b565b610de3565b005b61038760048036038101906103829190612588565b610df9565b005b610391610e5b565b60405161039e9190612d62565b60405180910390f35b6103c160048036038101906103bc91906126e5565b61101c565b005b6103dd60048036038101906103d8919061272e565b6110e8565b6040516103ea9190612d9f565b60405180910390f35b61040d6004803603810190610408919061272e565b61123a565b005b61041761141d565b6040516104249190612d84565b60405180910390f35b610447600480360381019061044291906124f5565b6114ca565b6040516104549190612d84565b60405180910390f35b60007f80ac58cd000000000000000000000000000000000000000000000000000000007bffffffffffffffffffffffffffffffffffffffffffffffffffffffff1916827bffffffffffffffffffffffffffffffffffffffffffffffffffffffff1916148061052857507f5b5e139f000000000000000000000000000000000000000000000000000000007bffffffffffffffffffffffffffffffffffffffffffffffffffffffff1916827bffffffffffffffffffffffffffffffffffffffffffffffffffffffff1916145b8061053857506105378261155e565b5b9050919050565b60606000805461054e906132fb565b80601f016020809104026020016040519081016040528092919081815260200182805461057a906132fb565b80156105c75780601f1061059c576101008083540402835291602001916105c7565b820191906000526020600020905b8154815290600101906020018083116105aa57829003601f168201915b5050505050905090565b60006105dc826115c8565b61061b576040517f08c379a000000000000000000000000000000000000000000000000000000000815260040161061290612f63565b60405180910390fd5b6004600083815260200190815260200160002060009054906101000a900473ffffffffffffffffffffffffffffffffffffffff169050919050565b600061066182610a8a565b90508073ffffffffffffffffffffffffffffffffffffffff168373ffffffffffffffffffffffffffffffffffffffff1614156106d2576040517f08c379a00000000000000000000000000000000000000000000000000000000081526004016106c990612fc3565b60405180910390fd5b8073ffffffffffffffffffffffffffffffffffffffff166106f1611634565b73ffffffffffffffffffffffffffffffffffffffff161480610720575061071f8161071a611634565b6114ca565b5b61075f576040517f08c379a000000000000000000000000000000000000000000000000000000000815260040161075690612ea3565b60405180910390fd5b610769838361163c565b505050565b600061077a60086116f5565b61078460076116f5565b6000610790600761170b565b905060405180606001604052806107a7600861170b565b81526020013373ffffffffffffffffffffffffffffffffffffffff1681526020016000815250600b60003373ffffffffffffffffffffffffffffffffffffffff1673ffffffffffffffffffffffffffffffffffffffff1681526020019081526020016000206000820151816000015560208201518160010160006101000a81548173ffffffffffffffffffffffffffffffffffffffff021916908373ffffffffffffffffffffffffffffffffffffffff160217905550604082015181600201559050506009339080600181540180825580915050600190039060005260206000200160009091909190916101000a81548173ffffffffffffffffffffffffffffffffffffffff021916908373ffffffffffffffffffffffffffffffffffffffff1602179055506108d73382611719565b6108f981604051806080016040528060578152602001613a1260579139611737565b7febb98688741ffa4c7589bf325de30cf7becb63de567842e1ccdb6cb949fdc82c338260405161092a929190612d17565b60405180910390a18091505090565b61094a610944611634565b826117ab565b610989576040517f08c379a000000000000000000000000000000000000000000000000000000000815260040161098090612fe3565b60405180910390fd5b610994838383611889565b505050565b6109b483838360405180602001604052806000815250610df9565b505050565b6060600c60008373ffffffffffffffffffffffffffffffffffffffff1673ffffffffffffffffffffffffffffffffffffffff1681526020019081526020016000208054610a05906132fb565b80601f0160208091040260200160405190810160405280929190818152602001828054610a31906132fb565b8015610a7e5780601f10610a5357610100808354040283529160200191610a7e565b820191906000526020600020905b815481529060010190602001808311610a6157829003601f168201915b50505050509050919050565b6000806002600084815260200190815260200160002060009054906101000a900473ffffffffffffffffffffffffffffffffffffffff169050600073ffffffffffffffffffffffffffffffffffffffff168173ffffffffffffffffffffffffffffffffffffffff161415610b33576040517f08c379a0000000000000000000000000000000000000000000000000000000008152600401610b2a90612ee3565b60405180910390fd5b80915050919050565b610b446122a5565b600b60008373ffffffffffffffffffffffffffffffffffffffff1673ffffffffffffffffffffffffffffffffffffffff168152602001908152602001600020604051806060016040529081600082015481526020016001820160009054906101000a900473ffffffffffffffffffffffffffffffffffffffff1673ffffffffffffffffffffffffffffffffffffffff1673ffffffffffffffffffffffffffffffffffffffff1681526020016002820154815250509050919050565b60008073ffffffffffffffffffffffffffffffffffffffff168273ffffffffffffffffffffffffffffffffffffffff161415610c70576040517f08c379a0000000000000000000000000000000000000000000000000000000008152600401610c6790612ec3565b60405180910390fd5b600360008373ffffffffffffffffffffffffffffffffffffffff1673ffffffffffffffffffffffffffffffffffffffff168152602001908152602001600020549050919050565b606060018054610cc6906132fb565b80601f0160208091040260200160405190810160405280929190818152602001828054610cf2906132fb565b8015610d3f5780601f10610d1457610100808354040283529160200191610d3f565b820191906000526020600020905b815481529060010190602001808311610d2257829003601f168201915b5050505050905090565b60088060000154905081565b60606009805480602002602001604051908101604052809291908181526020018280548015610dd957602002820191906000526020600020905b8160009054906101000a900473ffffffffffffffffffffffffffffffffffffffff1673ffffffffffffffffffffffffffffffffffffffff1681526020019060010190808311610d8f575b5050505050905090565b610df5610dee611634565b8383611ae5565b5050565b610e0a610e04611634565b836117ab565b610e49576040517f08c379a0000000000000000000000000000000000000000000000000000000008152600401610e4090612fe3565b60405180910390fd5b610e5584848484611c52565b50505050565b60606000610e69600861170b565b90506000808267ffffffffffffffff811115610e8857610e87613494565b5b604051908082528060200260200182016040528015610ec157816020015b610eae6122a5565b815260200190600190039081610ea65790505b50905060005b60098054905081101561101257600060098281548110610eea57610ee9613465565b5b9060005260206000200160009054906101000a900473ffffffffffffffffffffffffffffffffffffffff1690506000600b60008373ffffffffffffffffffffffffffffffffffffffff1673ffffffffffffffffffffffffffffffffffffffff168152602001908152602001600020905080604051806060016040529081600082015481526020016001820160009054906101000a900473ffffffffffffffffffffffffffffffffffffffff1673ffffffffffffffffffffffffffffffffffffffff1673ffffffffffffffffffffffffffffffffffffffff168152602001600282015481525050848681518110610fe357610fe2613465565b5b6020026020010181905250600185610ffb919061318a565b94505050808061100a9061335e565b915050610ec7565b5080935050505090565b80600c60003373ffffffffffffffffffffffffffffffffffffffff1673ffffffffffffffffffffffffffffffffffffffff168152602001908152602001600020908051906020019061106f9291906122dc565b507f4df9dcd34ae35f40f2c756fd8ac83210ed0b76d065543ee73d868aec7c7fcf02600c60003373ffffffffffffffffffffffffffffffffffffffff1673ffffffffffffffffffffffffffffffffffffffff1681526020019081526020016000206040516110dd9190612dc1565b60405180910390a150565b60606110f3826115c8565b611132576040517f08c379a000000000000000000000000000000000000000000000000000000000815260040161112990612f43565b60405180910390fd5b6000600660008481526020019081526020016000208054611152906132fb565b80601f016020809104026020016040519081016040528092919081815260200182805461117e906132fb565b80156111cb5780601f106111a0576101008083540402835291602001916111cb565b820191906000526020600020905b8154815290600101906020018083116111ae57829003601f168201915b5050505050905060006111dc611cae565b90506000815114156111f2578192505050611235565b60008251111561122757808260405160200161120f929190612c8c565b60405160208183030381529060405292505050611235565b61123084611cc5565b925050505b919050565b600073ffffffffffffffffffffffffffffffffffffffff16600b60003373ffffffffffffffffffffffffffffffffffffffff1673ffffffffffffffffffffffffffffffffffffffff16815260200190815260200160002060010160009054906101000a900473ffffffffffffffffffffffffffffffffffffffff1673ffffffffffffffffffffffffffffffffffffffff16141561130c576040517f08c379a000000000000000000000000000000000000000000000000000000000815260040161130390612de3565b60405180910390fd5b6040518060600160405280611321600861170b565b81526020013373ffffffffffffffffffffffffffffffffffffffff16815260200182815250600b60003373ffffffffffffffffffffffffffffffffffffffff1673ffffffffffffffffffffffffffffffffffffffff1681526020019081526020016000206000820151816000015560208201518160010160006101000a81548173ffffffffffffffffffffffffffffffffffffffff021916908373ffffffffffffffffffffffffffffffffffffffff160217905550604082015181600201559050507ff033170858f428ae8861e79d7c7fc967596dcf22d2132002fbbf7e6d275558a881604051611412919061301e565b60405180910390a150565b600080600090505b6009805490508110156114c1573373ffffffffffffffffffffffffffffffffffffffff166009828154811061145d5761145c613465565b5b9060005260206000200160009054906101000a900473ffffffffffffffffffffffffffffffffffffffff1673ffffffffffffffffffffffffffffffffffffffff1614156114ae5760019150506114c7565b80806114b99061335e565b915050611425565b50600090505b90565b6000600560008473ffffffffffffffffffffffffffffffffffffffff1673ffffffffffffffffffffffffffffffffffffffff16815260200190815260200160002060008373ffffffffffffffffffffffffffffffffffffffff1673ffffffffffffffffffffffffffffffffffffffff16815260200190815260200160002060009054906101000a900460ff16905092915050565b60007f01ffc9a7000000000000000000000000000000000000000000000000000000007bffffffffffffffffffffffffffffffffffffffffffffffffffffffff1916827bffffffffffffffffffffffffffffffffffffffffffffffffffffffff1916149050919050565b60008073ffffffffffffffffffffffffffffffffffffffff166002600084815260200190815260200160002060009054906101000a900473ffffffffffffffffffffffffffffffffffffffff1673ffffffffffffffffffffffffffffffffffffffff1614159050919050565b600033905090565b816004600083815260200190815260200160002060006101000a81548173ffffffffffffffffffffffffffffffffffffffff021916908373ffffffffffffffffffffffffffffffffffffffff160217905550808273ffffffffffffffffffffffffffffffffffffffff166116af83610a8a565b73ffffffffffffffffffffffffffffffffffffffff167f8c5be1e5ebec7d5bd14f71427d1e84f3dd0314c0f7b2291e5b200ac8c7c3b92560405160405180910390a45050565b6001816000016000828254019250508190555050565b600081600001549050919050565b611733828260405180602001604052806000815250611d6c565b5050565b611740826115c8565b61177f576040517f08c379a000000000000000000000000000000000000000000000000000000000815260040161177690612f03565b60405180910390fd5b806006600084815260200190815260200160002090805190602001906117a69291906122dc565b505050565b60006117b6826115c8565b6117f5576040517f08c379a00000000000000000000000000000000000000000000000000000000081526004016117ec90612e83565b60405180910390fd5b600061180083610a8a565b90508073ffffffffffffffffffffffffffffffffffffffff168473ffffffffffffffffffffffffffffffffffffffff16148061186f57508373ffffffffffffffffffffffffffffffffffffffff16611857846105d1565b73ffffffffffffffffffffffffffffffffffffffff16145b80611880575061187f81856114ca565b5b91505092915050565b8273ffffffffffffffffffffffffffffffffffffffff166118a982610a8a565b73ffffffffffffffffffffffffffffffffffffffff16146118ff576040517f08c379a00000000000000000000000000000000000000000000000000000000081526004016118f690612f83565b60405180910390fd5b600073ffffffffffffffffffffffffffffffffffffffff168273ffffffffffffffffffffffffffffffffffffffff16141561196f576040517f08c379a000000000000000000000000000000000000000000000000000000000815260040161196690612e43565b60405180910390fd5b61197a838383611dc7565b61198560008261163c565b6001600360008573ffffffffffffffffffffffffffffffffffffffff1673ffffffffffffffffffffffffffffffffffffffff16815260200190815260200160002060008282546119d59190613211565b925050819055506001600360008473ffffffffffffffffffffffffffffffffffffffff1673ffffffffffffffffffffffffffffffffffffffff1681526020019081526020016000206000828254611a2c919061318a565b92505081905550816002600083815260200190815260200160002060006101000a81548173ffffffffffffffffffffffffffffffffffffffff021916908373ffffffffffffffffffffffffffffffffffffffff160217905550808273ffffffffffffffffffffffffffffffffffffffff168473ffffffffffffffffffffffffffffffffffffffff167fddf252ad1be2c89b69c2b068fc378daa952ba7f163c4a11628f55a4df523b3ef60405160405180910390a4505050565b8173ffffffffffffffffffffffffffffffffffffffff168373ffffffffffffffffffffffffffffffffffffffff161415611b54576040517f08c379a0000000000000000000000000000000000000000000000000000000008152600401611b4b90612e63565b60405180910390fd5b80600560008573ffffffffffffffffffffffffffffffffffffffff1673ffffffffffffffffffffffffffffffffffffffff16815260200190815260200160002060008473ffffffffffffffffffffffffffffffffffffffff1673ffffffffffffffffffffffffffffffffffffffff16815260200190815260200160002060006101000a81548160ff0219169083151502179055508173ffffffffffffffffffffffffffffffffffffffff168373ffffffffffffffffffffffffffffffffffffffff167f17307eab39ab6107e8899845ad3d59bd9653f200f220920489ca2b5937696c3183604051611c459190612d84565b60405180910390a3505050565b611c5d848484611889565b611c6984848484611dcc565b611ca8576040517f08c379a0000000000000000000000000000000000000000000000000000000008152600401611c9f90612e03565b60405180910390fd5b50505050565b606060405180602001604052806000815250905090565b6060611cd0826115c8565b611d0f576040517f08c379a0000000000000000000000000000000000000000000000000000000008152600401611d0690612fa3565b60405180910390fd5b6000611d19611cae565b90506000815111611d395760405180602001604052806000815250611d64565b80611d4384611f63565b604051602001611d54929190612c8c565b6040516020818303038152906040525b915050919050565b611d7683836120c4565b611d836000848484611dcc565b611dc2576040517f08c379a0000000000000000000000000000000000000000000000000000000008152600401611db990612e03565b60405180910390fd5b505050565b505050565b6000611ded8473ffffffffffffffffffffffffffffffffffffffff16612292565b15611f56578373ffffffffffffffffffffffffffffffffffffffff1663150b7a02611e16611634565b8786866040518563ffffffff1660e01b8152600401611e389493929190612ccb565b602060405180830381600087803b158015611e5257600080fd5b505af1925050508015611e8357506040513d601f19601f82011682018060405250810190611e8091906126b8565b60015b611f06573d8060008114611eb3576040519150601f19603f3d011682016040523d82523d6000602084013e611eb8565b606091505b50600081511415611efe576040517f08c379a0000000000000000000000000000000000000000000000000000000008152600401611ef590612e03565b60405180910390fd5b805181602001fd5b63150b7a0260e01b7bffffffffffffffffffffffffffffffffffffffffffffffffffffffff1916817bffffffffffffffffffffffffffffffffffffffffffffffffffffffff191614915050611f5b565b600190505b949350505050565b60606000821415611fab576040518060400160405280600181526020017f300000000000000000000000000000000000000000000000000000000000000081525090506120bf565b600082905060005b60008214611fdd578080611fc69061335e565b915050600a82611fd691906131e0565b9150611fb3565b60008167ffffffffffffffff811115611ff957611ff8613494565b5b6040519080825280601f01601f19166020018201604052801561202b5781602001600182028036833780820191505090505b5090505b600085146120b8576001826120449190613211565b9150600a8561205391906133a7565b603061205f919061318a565b60f81b81838151811061207557612074613465565b5b60200101907effffffffffffffffffffffffffffffffffffffffffffffffffffffffffffff1916908160001a905350600a856120b191906131e0565b945061202f565b8093505050505b919050565b600073ffffffffffffffffffffffffffffffffffffffff168273ffffffffffffffffffffffffffffffffffffffff161415612134576040517f08c379a000000000000000000000000000000000000000000000000000000000815260040161212b90612f23565b60405180910390fd5b61213d816115c8565b1561217d576040517f08c379a000000000000000000000000000000000000000000000000000000000815260040161217490612e23565b60405180910390fd5b61218960008383611dc7565b6001600360008473ffffffffffffffffffffffffffffffffffffffff1673ffffffffffffffffffffffffffffffffffffffff16815260200190815260200160002060008282546121d9919061318a565b92505081905550816002600083815260200190815260200160002060006101000a81548173ffffffffffffffffffffffffffffffffffffffff021916908373ffffffffffffffffffffffffffffffffffffffff160217905550808273ffffffffffffffffffffffffffffffffffffffff16600073ffffffffffffffffffffffffffffffffffffffff167fddf252ad1be2c89b69c2b068fc378daa952ba7f163c4a11628f55a4df523b3ef60405160405180910390a45050565b600080823b905060008111915050919050565b604051806060016040528060008152602001600073ffffffffffffffffffffffffffffffffffffffff168152602001600081525090565b8280546122e8906132fb565b90600052602060002090601f01602090048101928261230a5760008555612351565b82601f1061232357805160ff1916838001178555612351565b82800160010185558215612351579182015b82811115612350578251825591602001919060010190612335565b5b50905061235e9190612362565b5090565b5b8082111561237b576000816000905550600101612363565b5090565b600061239261238d8461305e565b613039565b9050828152602081018484840111156123ae576123ad6134c8565b5b6123b98482856132b9565b509392505050565b60006123d46123cf8461308f565b613039565b9050828152602081018484840111156123f0576123ef6134c8565b5b6123fb8482856132b9565b509392505050565b600081359050612412816139b5565b92915050565b600081359050612427816139cc565b92915050565b60008135905061243c816139e3565b92915050565b600081519050612451816139e3565b92915050565b600082601f83011261246c5761246b6134c3565b5b813561247c84826020860161237f565b91505092915050565b600082601f83011261249a576124996134c3565b5b81356124aa8482602086016123c1565b91505092915050565b6000813590506124c2816139fa565b92915050565b6000602082840312156124de576124dd6134d2565b5b60006124ec84828501612403565b91505092915050565b6000806040838503121561250c5761250b6134d2565b5b600061251a85828601612403565b925050602061252b85828601612403565b9150509250929050565b60008060006060848603121561254e5761254d6134d2565b5b600061255c86828701612403565b935050602061256d86828701612403565b925050604061257e868287016124b3565b9150509250925092565b600080600080608085870312156125a2576125a16134d2565b5b60006125b087828801612403565b94505060206125c187828801612403565b93505060406125d2878288016124b3565b925050606085013567ffffffffffffffff8111156125f3576125f26134cd565b5b6125ff87828801612457565b91505092959194509250565b60008060408385031215612622576126216134d2565b5b600061263085828601612403565b925050602061264185828601612418565b9150509250929050565b60008060408385031215612662576126616134d2565b5b600061267085828601612403565b9250506020612681858286016124b3565b9150509250929050565b6000602082840312156126a1576126a06134d2565b5b60006126af8482850161242d565b91505092915050565b6000602082840312156126ce576126cd6134d2565b5b60006126dc84828501612442565b91505092915050565b6000602082840312156126fb576126fa6134d2565b5b600082013567ffffffffffffffff811115612719576127186134cd565b5b61272584828501612485565b91505092915050565b600060208284031215612744576127436134d2565b5b6000612752848285016124b3565b91505092915050565b6000612767838361278b565b60208301905092915050565b600061277f8383612bea565b60608301905092915050565b61279481613245565b82525050565b6127a381613245565b82525050565b60006127b4826130f5565b6127be818561313b565b93506127c9836130c0565b8060005b838110156127fa5781516127e1888261275b565b97506127ec83613121565b9250506001810190506127cd565b5085935050505092915050565b600061281282613100565b61281c818561314c565b9350612827836130d0565b8060005b8381101561285857815161283f8882612773565b975061284a8361312e565b92505060018101905061282b565b5085935050505092915050565b61286e81613257565b82525050565b600061287f8261310b565b612889818561315d565b93506128998185602086016132c8565b6128a2816134d7565b840191505092915050565b60006128b882613116565b6128c2818561316e565b93506128d28185602086016132c8565b6128db816134d7565b840191505092915050565b60006128f182613116565b6128fb818561317f565b935061290b8185602086016132c8565b80840191505092915050565b60008154612924816132fb565b61292e818661316e565b94506001821660008114612949576001811461295b5761298e565b60ff198316865260208601935061298e565b612964856130e0565b60005b8381101561298657815481890152600182019150602081019050612967565b808801955050505b50505092915050565b60006129a460278361316e565b91506129af826134e8565b604082019050919050565b60006129c760328361316e565b91506129d282613537565b604082019050919050565b60006129ea601c8361316e565b91506129f582613586565b602082019050919050565b6000612a0d60248361316e565b9150612a18826135af565b604082019050919050565b6000612a3060198361316e565b9150612a3b826135fe565b602082019050919050565b6000612a53602c8361316e565b9150612a5e82613627565b604082019050919050565b6000612a7660388361316e565b9150612a8182613676565b604082019050919050565b6000612a99602a8361316e565b9150612aa4826136c5565b604082019050919050565b6000612abc60298361316e565b9150612ac782613714565b604082019050919050565b6000612adf602e8361316e565b9150612aea82613763565b604082019050919050565b6000612b0260208361316e565b9150612b0d826137b2565b602082019050919050565b6000612b2560318361316e565b9150612b30826137db565b604082019050919050565b6000612b48602c8361316e565b9150612b538261382a565b604082019050919050565b6000612b6b60298361316e565b9150612b7682613879565b604082019050919050565b6000612b8e602f8361316e565b9150612b99826138c8565b604082019050919050565b6000612bb160218361316e565b9150612bbc82613917565b604082019050919050565b6000612bd460318361316e565b9150612bdf82613966565b604082019050919050565b606082016000820151612c006000850182612c6e565b506020820151612c13602085018261278b565b506040820151612c266040850182612c6e565b50505050565b606082016000820151612c426000850182612c6e565b506020820151612c55602085018261278b565b506040820151612c686040850182612c6e565b50505050565b612c77816132af565b82525050565b612c86816132af565b82525050565b6000612c9882856128e6565b9150612ca482846128e6565b91508190509392505050565b6000602082019050612cc5600083018461279a565b92915050565b6000608082019050612ce0600083018761279a565b612ced602083018661279a565b612cfa6040830185612c7d565b8181036060830152612d0c8184612874565b905095945050505050565b6000604082019050612d2c600083018561279a565b612d396020830184612c7d565b9392505050565b60006020820190508181036000830152612d5a81846127a9565b905092915050565b60006020820190508181036000830152612d7c8184612807565b905092915050565b6000602082019050612d996000830184612865565b92915050565b60006020820190508181036000830152612db981846128ad565b905092915050565b60006020820190508181036000830152612ddb8184612917565b905092915050565b60006020820190508181036000830152612dfc81612997565b9050919050565b60006020820190508181036000830152612e1c816129ba565b9050919050565b60006020820190508181036000830152612e3c816129dd565b9050919050565b60006020820190508181036000830152612e5c81612a00565b9050919050565b60006020820190508181036000830152612e7c81612a23565b9050919050565b60006020820190508181036000830152612e9c81612a46565b9050919050565b60006020820190508181036000830152612ebc81612a69565b9050919050565b60006020820190508181036000830152612edc81612a8c565b9050919050565b60006020820190508181036000830152612efc81612aaf565b9050919050565b60006020820190508181036000830152612f1c81612ad2565b9050919050565b60006020820190508181036000830152612f3c81612af5565b9050919050565b60006020820190508181036000830152612f5c81612b18565b9050919050565b60006020820190508181036000830152612f7c81612b3b565b9050919050565b60006020820190508181036000830152612f9c81612b5e565b9050919050565b60006020820190508181036000830152612fbc81612b81565b9050919050565b60006020820190508181036000830152612fdc81612ba4565b9050919050565b60006020820190508181036000830152612ffc81612bc7565b9050919050565b60006060820190506130186000830184612c2c565b92915050565b60006020820190506130336000830184612c7d565b92915050565b6000613043613054565b905061304f828261332d565b919050565b6000604051905090565b600067ffffffffffffffff82111561307957613078613494565b5b613082826134d7565b9050602081019050919050565b600067ffffffffffffffff8211156130aa576130a9613494565b5b6130b3826134d7565b9050602081019050919050565b6000819050602082019050919050565b6000819050602082019050919050565b60008190508160005260206000209050919050565b600081519050919050565b600081519050919050565b600081519050919050565b600081519050919050565b6000602082019050919050565b6000602082019050919050565b600082825260208201905092915050565b600082825260208201905092915050565b600082825260208201905092915050565b600082825260208201905092915050565b600081905092915050565b6000613195826132af565b91506131a0836132af565b9250827fffffffffffffffffffffffffffffffffffffffffffffffffffffffffffffffff038211156131d5576131d46133d8565b5b828201905092915050565b60006131eb826132af565b91506131f6836132af565b92508261320657613205613407565b5b828204905092915050565b600061321c826132af565b9150613227836132af565b92508282101561323a576132396133d8565b5b828203905092915050565b60006132508261328f565b9050919050565b60008115159050919050565b60007fffffffff0000000000000000000000000000000000000000000000000000000082169050919050565b600073ffffffffffffffffffffffffffffffffffffffff82169050919050565b6000819050919050565b82818337600083830152505050565b60005b838110156132e65780820151818401526020810190506132cb565b838111156132f5576000848401525b50505050565b6000600282049050600182168061331357607f821691505b6020821081141561332757613326613436565b5b50919050565b613336826134d7565b810181811067ffffffffffffffff8211171561335557613354613494565b5b80604052505050565b6000613369826132af565b91507fffffffffffffffffffffffffffffffffffffffffffffffffffffffffffffffff82141561339c5761339b6133d8565b5b600182019050919050565b60006133b2826132af565b91506133bd836132af565b9250826133cd576133cc613407565b5b828206905092915050565b7f4e487b7100000000000000000000000000000000000000000000000000000000600052601160045260246000fd5b7f4e487b7100000000000000000000000000000000000000000000000000000000600052601260045260246000fd5b7f4e487b7100000000000000000000000000000000000000000000000000000000600052602260045260246000fd5b7f4e487b7100000000000000000000000000000000000000000000000000000000600052603260045260246000fd5b7f4e487b7100000000000000000000000000000000000000000000000000000000600052604160045260246000fd5b600080fd5b600080fd5b600080fd5b600080fd5b6000601f19601f8301169050919050565b7f4d696e74206d656d6265727368697020746f6b656e20746f2062652061626c6560008201527f20746f206d696e00000000000000000000000000000000000000000000000000602082015250565b7f4552433732313a207472616e7366657220746f206e6f6e20455243373231526560008201527f63656976657220696d706c656d656e7465720000000000000000000000000000602082015250565b7f4552433732313a20746f6b656e20616c7265616479206d696e74656400000000600082015250565b7f4552433732313a207472616e7366657220746f20746865207a65726f2061646460008201527f7265737300000000000000000000000000000000000000000000000000000000602082015250565b7f4552433732313a20617070726f766520746f2063616c6c657200000000000000600082015250565b7f4552433732313a206f70657261746f7220717565727920666f72206e6f6e657860008201527f697374656e7420746f6b656e0000000000000000000000000000000000000000602082015250565b7f4552433732313a20617070726f76652063616c6c6572206973206e6f74206f7760008201527f6e6572206e6f7220617070726f76656420666f7220616c6c0000000000000000602082015250565b7f4552433732313a2062616c616e636520717565727920666f7220746865207a6560008201527f726f206164647265737300000000000000000000000000000000000000000000602082015250565b7f4552433732313a206f776e657220717565727920666f72206e6f6e657869737460008201527f656e7420746f6b656e0000000000000000000000000000000000000000000000602082015250565b7f45524337323155524953746f726167653a2055524920736574206f66206e6f6e60008201527f6578697374656e7420746f6b656e000000000000000000000000000000000000602082015250565b7f4552433732313a206d696e7420746f20746865207a65726f2061646472657373600082015250565b7f45524337323155524953746f726167653a2055524920717565727920666f722060008201527f6e6f6e6578697374656e7420746f6b656e000000000000000000000000000000602082015250565b7f4552433732313a20617070726f76656420717565727920666f72206e6f6e657860008201527f697374656e7420746f6b656e0000000000000000000000000000000000000000602082015250565b7f4552433732313a207472616e73666572206f6620746f6b656e2074686174206960008201527f73206e6f74206f776e0000000000000000000000000000000000000000000000602082015250565b7f4552433732314d657461646174613a2055524920717565727920666f72206e6f60008201527f6e6578697374656e7420746f6b656e0000000000000000000000000000000000602082015250565b7f4552433732313a20617070726f76616c20746f2063757272656e74206f776e6560008201527f7200000000000000000000000000000000000000000000000000000000000000602082015250565b7f4552433732313a207472616e736665722063616c6c6572206973206e6f74206f60008201527f776e6572206e6f7220617070726f766564000000000000000000000000000000602082015250565b6139be81613245565b81146139c957600080fd5b50565b6139d581613257565b81146139e057600080fd5b50565b6139ec81613263565b81146139f757600080fd5b50565b613a03816132af565b8114613a0e57600080fd5b5056fe68747470733a2f2f676174657761792e70696e6174612e636c6f75642f697066732f516d544a6454677776444c6e345652476d696f6e326f773834793465786a3453504b6a4e637747706944787541652f302e6a736f6ea264697066735822122054540331926ca0ad6e7a73e11ff984b5d1e1ea4d65e03e6f03cbabcfdb2cfe6b64736f6c63430008070033",
  "linkReferences": {},
  "deployedLinkReferences": {}
}