{
  "_format": "hh-sol-artifact-1",
  "contractName": "Brainly",
  "sourceName": "contracts/Brainly.sol",
  "abi": [
    {
      "inputs": [],
      "stateMutability": "nonpayable",
      "type": "constructor"
    },
    {
      "anonymous": false,
      "inputs": [
        {
          "indexed": true,
          "internalType": "address",
          "name": "owner",
          "type": "address"
        },
        {
          "indexed": true,
          "internalType": "address",
          "name": "approved",
          "type": "address"
        },
        {
          "indexed": true,
          "internalType": "uint256",
          "name": "tokenId",
          "type": "uint256"
        }
      ],
      "name": "Approval",
      "type": "event"
    },
    {
      "anonymous": false,
      "inputs": [
        {
          "indexed": true,
          "internalType": "address",
          "name": "owner",
          "type": "address"
        },
        {
          "indexed": true,
          "internalType": "address",
          "name": "operator",
          "type": "address"
        },
        {
          "indexed": false,
          "internalType": "bool",
          "name": "approved",
          "type": "bool"
        }
      ],
      "name": "ApprovalForAll",
      "type": "event"
    },
    {
      "anonymous": false,
      "inputs": [
        {
          "indexed": false,
          "internalType": "address",
          "name": "sender",
          "type": "address"
        },
        {
          "indexed": false,
          "internalType": "uint256",
          "name": "tokenId",
          "type": "uint256"
        }
      ],
      "name": "NewEpicNFTMinted",
      "type": "event"
    },
    {
      "anonymous": false,
      "inputs": [
        {
          "indexed": true,
          "internalType": "address",
          "name": "from",
          "type": "address"
        },
        {
          "indexed": true,
          "internalType": "address",
          "name": "to",
          "type": "address"
        },
        {
          "indexed": true,
          "internalType": "uint256",
          "name": "tokenId",
          "type": "uint256"
        }
      ],
      "name": "Transfer",
      "type": "event"
    },
    {
      "inputs": [],
      "name": "_noUsers",
      "outputs": [
        {
          "internalType": "uint256",
          "name": "_value",
          "type": "uint256"
        }
      ],
      "stateMutability": "view",
      "type": "function"
    },
    {
      "inputs": [
        {
          "internalType": "address",
          "name": "to",
          "type": "address"
        },
        {
          "internalType": "uint256",
          "name": "tokenId",
          "type": "uint256"
        }
      ],
      "name": "approve",
      "outputs": [],
      "stateMutability": "nonpayable",
      "type": "function"
    },
    {
      "inputs": [
        {
          "internalType": "address",
          "name": "owner",
          "type": "address"
        }
      ],
      "name": "balanceOf",
      "outputs": [
        {
          "internalType": "uint256",
          "name": "",
          "type": "uint256"
        }
      ],
      "stateMutability": "view",
      "type": "function"
    },
    {
      "inputs": [],
      "name": "fetchUsers",
      "outputs": [
        {
          "components": [
            {
              "internalType": "uint256",
              "name": "userId",
              "type": "uint256"
            },
            {
              "internalType": "address",
              "name": "userAddress",
              "type": "address"
            },
            {
              "internalType": "uint256",
              "name": "level",
              "type": "uint256"
            }
          ],
          "internalType": "struct Brainly.User[]",
          "name": "",
          "type": "tuple[]"
        }
      ],
      "stateMutability": "view",
      "type": "function"
    },
    {
      "inputs": [
        {
          "internalType": "uint256",
          "name": "tokenId",
          "type": "uint256"
        }
      ],
      "name": "getApproved",
      "outputs": [
        {
          "internalType": "address",
          "name": "",
          "type": "address"
        }
      ],
      "stateMutability": "view",
      "type": "function"
    },
    {
      "inputs": [
        {
          "internalType": "address",
          "name": "owner",
          "type": "address"
        },
        {
          "internalType": "address",
          "name": "operator",
          "type": "address"
        }
      ],
      "name": "isApprovedForAll",
      "outputs": [
        {
          "internalType": "bool",
          "name": "",
          "type": "bool"
        }
      ],
      "stateMutability": "view",
      "type": "function"
    },
    {
      "inputs": [],
      "name": "isMember",
      "outputs": [
        {
          "internalType": "bool",
          "name": "_bool",
          "type": "bool"
        }
      ],
      "stateMutability": "view",
      "type": "function"
    },
    {
      "inputs": [],
      "name": "mintToken",
      "outputs": [
        {
          "internalType": "uint256",
          "name": "",
          "type": "uint256"
        }
      ],
      "stateMutability": "nonpayable",
      "type": "function"
    },
    {
      "inputs": [],
      "name": "name",
      "outputs": [
        {
          "internalType": "string",
          "name": "",
          "type": "string"
        }
      ],
      "stateMutability": "view",
      "type": "function"
    },
    {
      "inputs": [
        {
          "internalType": "uint256",
          "name": "tokenId",
          "type": "uint256"
        }
      ],
      "name": "ownerOf",
      "outputs": [
        {
          "internalType": "address",
          "name": "",
          "type": "address"
        }
      ],
      "stateMutability": "view",
      "type": "function"
    },
    {
      "inputs": [
        {
          "internalType": "uint256",
          "name": "_level",
          "type": "uint256"
        }
      ],
      "name": "publish",
      "outputs": [],
      "stateMutability": "nonpayable",
      "type": "function"
    },
    {
      "inputs": [
        {
          "internalType": "address",
          "name": "from",
          "type": "address"
        },
        {
          "internalType": "address",
          "name": "to",
          "type": "address"
        },
        {
          "internalType": "uint256",
          "name": "tokenId",
          "type": "uint256"
        }
      ],
      "name": "safeTransferFrom",
      "outputs": [],
      "stateMutability": "nonpayable",
      "type": "function"
    },
    {
      "inputs": [
        {
          "internalType": "address",
          "name": "from",
          "type": "address"
        },
        {
          "internalType": "address",
          "name": "to",
          "type": "address"
        },
        {
          "internalType": "uint256",
          "name": "tokenId",
          "type": "uint256"
        },
        {
          "internalType": "bytes",
          "name": "_data",
          "type": "bytes"
        }
      ],
      "name": "safeTransferFrom",
      "outputs": [],
      "stateMutability": "nonpayable",
      "type": "function"
    },
    {
      "inputs": [
        {
          "internalType": "address",
          "name": "operator",
          "type": "address"
        },
        {
          "internalType": "bool",
          "name": "approved",
          "type": "bool"
        }
      ],
      "name": "setApprovalForAll",
      "outputs": [],
      "stateMutability": "nonpayable",
      "type": "function"
    },
    {
      "inputs": [
        {
          "internalType": "bytes4",
          "name": "interfaceId",
          "type": "bytes4"
        }
      ],
      "name": "supportsInterface",
      "outputs": [
        {
          "internalType": "bool",
          "name": "",
          "type": "bool"
        }
      ],
      "stateMutability": "view",
      "type": "function"
    },
    {
      "inputs": [],
      "name": "symbol",
      "outputs": [
        {
          "internalType": "string",
          "name": "",
          "type": "string"
        }
      ],
      "stateMutability": "view",
      "type": "function"
    },
    {
      "inputs": [
        {
          "internalType": "uint256",
          "name": "tokenId",
          "type": "uint256"
        }
      ],
      "name": "tokenURI",
      "outputs": [
        {
          "internalType": "string",
          "name": "",
          "type": "string"
        }
      ],
      "stateMutability": "view",
      "type": "function"
    },
    {
      "inputs": [
        {
          "internalType": "address",
          "name": "from",
          "type": "address"
        },
        {
          "internalType": "address",
          "name": "to",
          "type": "address"
        },
        {
          "internalType": "uint256",
          "name": "tokenId",
          "type": "uint256"
        }
      ],
      "name": "transferFrom",
      "outputs": [],
      "stateMutability": "nonpayable",
      "type": "function"
    }
  ],
  "bytecode": "0x60806040523480156200001157600080fd5b506040518060400160405280601881526020017f427261696e6c79204d656d6265727368697020546f6b656e00000000000000008152506040518060400160405280600381526020017f424d540000000000000000000000000000000000000000000000000000000000815250816000908051906020019062000096929190620000b8565b508060019080519060200190620000af929190620000b8565b505050620001cd565b828054620000c69062000168565b90600052602060002090601f016020900481019282620000ea576000855562000136565b82601f106200010557805160ff191683800117855562000136565b8280016001018555821562000136579182015b828111156200013557825182559160200191906001019062000118565b5b50905062000145919062000149565b5090565b5b80821115620001645760008160009055506001016200014a565b5090565b600060028204905060018216806200018157607f821691505b602082108114156200019857620001976200019e565b5b50919050565b7f4e487b7100000000000000000000000000000000000000000000000000000000600052602260045260246000fd5b6133e480620001dd6000396000f3fe608060405234801561001057600080fd5b50600436106101165760003560e01c806395d89b41116100a2578063bfcad43311610071578063bfcad433146102df578063c87b56dd146102fd578063cc4ef1191461032d578063d02982cf14610349578063e985e9c51461036757610116565b806395d89b411461026b5780639cc49bb914610289578063a22cb465146102a7578063b88d4fde146102c357610116565b80632004ffd9116100e95780632004ffd9146101b557806323b872dd146101d357806342842e0e146101ef5780636352211e1461020b57806370a082311461023b57610116565b806301ffc9a71461011b57806306fdde031461014b578063081812fc14610169578063095ea7b314610199575b600080fd5b61013560048036038101906101309190612230565b610397565b6040516101429190612786565b60405180910390f35b610153610479565b60405161016091906127a1565b60405180910390f35b610183600480360381019061017e919061228a565b61050b565b60405161019091906126d4565b60405180910390f35b6101b360048036038101906101ae91906121f0565b610590565b005b6101bd6106a8565b6040516101ca91906129e3565b60405180910390f35b6101ed60048036038101906101e891906120da565b610873565b005b610209600480360381019061020491906120da565b6108d3565b005b6102256004803603810190610220919061228a565b6108f3565b60405161023291906126d4565b60405180910390f35b6102556004803603810190610250919061206d565b6109a5565b60405161026291906129e3565b60405180910390f35b610273610a5d565b60405161028091906127a1565b60405180910390f35b610291610aef565b60405161029e91906129e3565b60405180910390f35b6102c160048036038101906102bc91906121b0565b610afb565b005b6102dd60048036038101906102d8919061212d565b610b11565b005b6102e7610b73565b6040516102f49190612764565b60405180910390f35b6103176004803603810190610312919061228a565b610d34565b60405161032491906127a1565b60405180910390f35b6103476004803603810190610342919061228a565b610e86565b005b610351611032565b60405161035e9190612786565b60405180910390f35b610381600480360381019061037c919061209a565b6110df565b60405161038e9190612786565b60405180910390f35b60007f80ac58cd000000000000000000000000000000000000000000000000000000007bffffffffffffffffffffffffffffffffffffffffffffffffffffffff1916827bffffffffffffffffffffffffffffffffffffffffffffffffffffffff1916148061046257507f5b5e139f000000000000000000000000000000000000000000000000000000007bffffffffffffffffffffffffffffffffffffffffffffffffffffffff1916827bffffffffffffffffffffffffffffffffffffffffffffffffffffffff1916145b80610472575061047182611173565b5b9050919050565b60606000805461048890612c41565b80601f01602080910402602001604051908101604052809291908181526020018280546104b490612c41565b80156105015780601f106104d657610100808354040283529160200191610501565b820191906000526020600020905b8154815290600101906020018083116104e457829003601f168201915b5050505050905090565b6000610516826111dd565b610555576040517f08c379a000000000000000000000000000000000000000000000000000000000815260040161054c90612943565b60405180910390fd5b6004600083815260200190815260200160002060009054906101000a900473ffffffffffffffffffffffffffffffffffffffff169050919050565b600061059b826108f3565b90508073ffffffffffffffffffffffffffffffffffffffff168373ffffffffffffffffffffffffffffffffffffffff16141561060c576040517f08c379a0000000000000000000000000000000000000000000000000000000008152600401610603906129a3565b60405180910390fd5b8073ffffffffffffffffffffffffffffffffffffffff1661062b611249565b73ffffffffffffffffffffffffffffffffffffffff16148061065a575061065981610654611249565b6110df565b5b610699576040517f08c379a000000000000000000000000000000000000000000000000000000000815260040161069090612883565b60405180910390fd5b6106a38383611251565b505050565b60006106b4600861130a565b6106be600761130a565b60006106ca6007611320565b905060405180606001604052806106e16008611320565b81526020013373ffffffffffffffffffffffffffffffffffffffff1681526020016000815250600b60003373ffffffffffffffffffffffffffffffffffffffff1673ffffffffffffffffffffffffffffffffffffffff1681526020019081526020016000206000820151816000015560208201518160010160006101000a81548173ffffffffffffffffffffffffffffffffffffffff021916908373ffffffffffffffffffffffffffffffffffffffff160217905550604082015181600201559050506009339080600181540180825580915050600190039060005260206000200160009091909190916101000a81548173ffffffffffffffffffffffffffffffffffffffff021916908373ffffffffffffffffffffffffffffffffffffffff160217905550610811338261132e565b610833816040518060800160405280605781526020016133586057913961134c565b7febb98688741ffa4c7589bf325de30cf7becb63de567842e1ccdb6cb949fdc82c338260405161086492919061273b565b60405180910390a18091505090565b61088461087e611249565b826113c0565b6108c3576040517f08c379a00000000000000000000000000000000000000000000000000000000081526004016108ba906129c3565b60405180910390fd5b6108ce83838361149e565b505050565b6108ee83838360405180602001604052806000815250610b11565b505050565b6000806002600084815260200190815260200160002060009054906101000a900473ffffffffffffffffffffffffffffffffffffffff169050600073ffffffffffffffffffffffffffffffffffffffff168173ffffffffffffffffffffffffffffffffffffffff16141561099c576040517f08c379a0000000000000000000000000000000000000000000000000000000008152600401610993906128c3565b60405180910390fd5b80915050919050565b60008073ffffffffffffffffffffffffffffffffffffffff168273ffffffffffffffffffffffffffffffffffffffff161415610a16576040517f08c379a0000000000000000000000000000000000000000000000000000000008152600401610a0d906128a3565b60405180910390fd5b600360008373ffffffffffffffffffffffffffffffffffffffff1673ffffffffffffffffffffffffffffffffffffffff168152602001908152602001600020549050919050565b606060018054610a6c90612c41565b80601f0160208091040260200160405190810160405280929190818152602001828054610a9890612c41565b8015610ae55780601f10610aba57610100808354040283529160200191610ae5565b820191906000526020600020905b815481529060010190602001808311610ac857829003601f168201915b5050505050905090565b60088060000154905081565b610b0d610b06611249565b83836116fa565b5050565b610b22610b1c611249565b836113c0565b610b61576040517f08c379a0000000000000000000000000000000000000000000000000000000008152600401610b58906129c3565b60405180910390fd5b610b6d84848484611867565b50505050565b60606000610b816008611320565b90506000808267ffffffffffffffff811115610ba057610b9f612dda565b5b604051908082528060200260200182016040528015610bd957816020015b610bc6611eba565b815260200190600190039081610bbe5790505b50905060005b600980549050811015610d2a57600060098281548110610c0257610c01612dab565b5b9060005260206000200160009054906101000a900473ffffffffffffffffffffffffffffffffffffffff1690506000600b60008373ffffffffffffffffffffffffffffffffffffffff1673ffffffffffffffffffffffffffffffffffffffff168152602001908152602001600020905080604051806060016040529081600082015481526020016001820160009054906101000a900473ffffffffffffffffffffffffffffffffffffffff1673ffffffffffffffffffffffffffffffffffffffff1673ffffffffffffffffffffffffffffffffffffffff168152602001600282015481525050848681518110610cfb57610cfa612dab565b5b6020026020010181905250600185610d139190612ad0565b945050508080610d2290612ca4565b915050610bdf565b5080935050505090565b6060610d3f826111dd565b610d7e576040517f08c379a0000000000000000000000000000000000000000000000000000000008152600401610d7590612923565b60405180910390fd5b6000600660008481526020019081526020016000208054610d9e90612c41565b80601f0160208091040260200160405190810160405280929190818152602001828054610dca90612c41565b8015610e175780601f10610dec57610100808354040283529160200191610e17565b820191906000526020600020905b815481529060010190602001808311610dfa57829003601f168201915b505050505090506000610e286118c3565b9050600081511415610e3e578192505050610e81565b600082511115610e73578082604051602001610e5b9291906126b0565b60405160208183030381529060405292505050610e81565b610e7c846118da565b925050505b919050565b600073ffffffffffffffffffffffffffffffffffffffff16600b60003373ffffffffffffffffffffffffffffffffffffffff1673ffffffffffffffffffffffffffffffffffffffff16815260200190815260200160002060010160009054906101000a900473ffffffffffffffffffffffffffffffffffffffff1673ffffffffffffffffffffffffffffffffffffffff161415610f58576040517f08c379a0000000000000000000000000000000000000000000000000000000008152600401610f4f906127c3565b60405180910390fd5b6040518060600160405280610f6d6008611320565b81526020013373ffffffffffffffffffffffffffffffffffffffff16815260200182815250600b60003373ffffffffffffffffffffffffffffffffffffffff1673ffffffffffffffffffffffffffffffffffffffff1681526020019081526020016000206000820151816000015560208201518160010160006101000a81548173ffffffffffffffffffffffffffffffffffffffff021916908373ffffffffffffffffffffffffffffffffffffffff1602179055506040820151816002015590505050565b600080600090505b6009805490508110156110d6573373ffffffffffffffffffffffffffffffffffffffff166009828154811061107257611071612dab565b5b9060005260206000200160009054906101000a900473ffffffffffffffffffffffffffffffffffffffff1673ffffffffffffffffffffffffffffffffffffffff1614156110c35760019150506110dc565b80806110ce90612ca4565b91505061103a565b50600090505b90565b6000600560008473ffffffffffffffffffffffffffffffffffffffff1673ffffffffffffffffffffffffffffffffffffffff16815260200190815260200160002060008373ffffffffffffffffffffffffffffffffffffffff1673ffffffffffffffffffffffffffffffffffffffff16815260200190815260200160002060009054906101000a900460ff16905092915050565b60007f01ffc9a7000000000000000000000000000000000000000000000000000000007bffffffffffffffffffffffffffffffffffffffffffffffffffffffff1916827bffffffffffffffffffffffffffffffffffffffffffffffffffffffff1916149050919050565b60008073ffffffffffffffffffffffffffffffffffffffff166002600084815260200190815260200160002060009054906101000a900473ffffffffffffffffffffffffffffffffffffffff1673ffffffffffffffffffffffffffffffffffffffff1614159050919050565b600033905090565b816004600083815260200190815260200160002060006101000a81548173ffffffffffffffffffffffffffffffffffffffff021916908373ffffffffffffffffffffffffffffffffffffffff160217905550808273ffffffffffffffffffffffffffffffffffffffff166112c4836108f3565b73ffffffffffffffffffffffffffffffffffffffff167f8c5be1e5ebec7d5bd14f71427d1e84f3dd0314c0f7b2291e5b200ac8c7c3b92560405160405180910390a45050565b6001816000016000828254019250508190555050565b600081600001549050919050565b611348828260405180602001604052806000815250611981565b5050565b611355826111dd565b611394576040517f08c379a000000000000000000000000000000000000000000000000000000000815260040161138b906128e3565b60405180910390fd5b806006600084815260200190815260200160002090805190602001906113bb929190611ef1565b505050565b60006113cb826111dd565b61140a576040517f08c379a000000000000000000000000000000000000000000000000000000000815260040161140190612863565b60405180910390fd5b6000611415836108f3565b90508073ffffffffffffffffffffffffffffffffffffffff168473ffffffffffffffffffffffffffffffffffffffff16148061148457508373ffffffffffffffffffffffffffffffffffffffff1661146c8461050b565b73ffffffffffffffffffffffffffffffffffffffff16145b80611495575061149481856110df565b5b91505092915050565b8273ffffffffffffffffffffffffffffffffffffffff166114be826108f3565b73ffffffffffffffffffffffffffffffffffffffff1614611514576040517f08c379a000000000000000000000000000000000000000000000000000000000815260040161150b90612963565b60405180910390fd5b600073ffffffffffffffffffffffffffffffffffffffff168273ffffffffffffffffffffffffffffffffffffffff161415611584576040517f08c379a000000000000000000000000000000000000000000000000000000000815260040161157b90612823565b60405180910390fd5b61158f8383836119dc565b61159a600082611251565b6001600360008573ffffffffffffffffffffffffffffffffffffffff1673ffffffffffffffffffffffffffffffffffffffff16815260200190815260200160002060008282546115ea9190612b57565b925050819055506001600360008473ffffffffffffffffffffffffffffffffffffffff1673ffffffffffffffffffffffffffffffffffffffff16815260200190815260200160002060008282546116419190612ad0565b92505081905550816002600083815260200190815260200160002060006101000a81548173ffffffffffffffffffffffffffffffffffffffff021916908373ffffffffffffffffffffffffffffffffffffffff160217905550808273ffffffffffffffffffffffffffffffffffffffff168473ffffffffffffffffffffffffffffffffffffffff167fddf252ad1be2c89b69c2b068fc378daa952ba7f163c4a11628f55a4df523b3ef60405160405180910390a4505050565b8173ffffffffffffffffffffffffffffffffffffffff168373ffffffffffffffffffffffffffffffffffffffff161415611769576040517f08c379a000000000000000000000000000000000000000000000000000000000815260040161176090612843565b60405180910390fd5b80600560008573ffffffffffffffffffffffffffffffffffffffff1673ffffffffffffffffffffffffffffffffffffffff16815260200190815260200160002060008473ffffffffffffffffffffffffffffffffffffffff1673ffffffffffffffffffffffffffffffffffffffff16815260200190815260200160002060006101000a81548160ff0219169083151502179055508173ffffffffffffffffffffffffffffffffffffffff168373ffffffffffffffffffffffffffffffffffffffff167f17307eab39ab6107e8899845ad3d59bd9653f200f220920489ca2b5937696c318360405161185a9190612786565b60405180910390a3505050565b61187284848461149e565b61187e848484846119e1565b6118bd576040517f08c379a00000000000000000000000000000000000000000000000000000000081526004016118b4906127e3565b60405180910390fd5b50505050565b606060405180602001604052806000815250905090565b60606118e5826111dd565b611924576040517f08c379a000000000000000000000000000000000000000000000000000000000815260040161191b90612983565b60405180910390fd5b600061192e6118c3565b9050600081511161194e5760405180602001604052806000815250611979565b8061195884611b78565b6040516020016119699291906126b0565b6040516020818303038152906040525b915050919050565b61198b8383611cd9565b61199860008484846119e1565b6119d7576040517f08c379a00000000000000000000000000000000000000000000000000000000081526004016119ce906127e3565b60405180910390fd5b505050565b505050565b6000611a028473ffffffffffffffffffffffffffffffffffffffff16611ea7565b15611b6b578373ffffffffffffffffffffffffffffffffffffffff1663150b7a02611a2b611249565b8786866040518563ffffffff1660e01b8152600401611a4d94939291906126ef565b602060405180830381600087803b158015611a6757600080fd5b505af1925050508015611a9857506040513d601f19601f82011682018060405250810190611a95919061225d565b60015b611b1b573d8060008114611ac8576040519150601f19603f3d011682016040523d82523d6000602084013e611acd565b606091505b50600081511415611b13576040517f08c379a0000000000000000000000000000000000000000000000000000000008152600401611b0a906127e3565b60405180910390fd5b805181602001fd5b63150b7a0260e01b7bffffffffffffffffffffffffffffffffffffffffffffffffffffffff1916817bffffffffffffffffffffffffffffffffffffffffffffffffffffffff191614915050611b70565b600190505b949350505050565b60606000821415611bc0576040518060400160405280600181526020017f30000000000000000000000000000000000000000000000000000000000000008152509050611cd4565b600082905060005b60008214611bf2578080611bdb90612ca4565b915050600a82611beb9190612b26565b9150611bc8565b60008167ffffffffffffffff811115611c0e57611c0d612dda565b5b6040519080825280601f01601f191660200182016040528015611c405781602001600182028036833780820191505090505b5090505b60008514611ccd57600182611c599190612b57565b9150600a85611c689190612ced565b6030611c749190612ad0565b60f81b818381518110611c8a57611c89612dab565b5b60200101907effffffffffffffffffffffffffffffffffffffffffffffffffffffffffffff1916908160001a905350600a85611cc69190612b26565b9450611c44565b8093505050505b919050565b600073ffffffffffffffffffffffffffffffffffffffff168273ffffffffffffffffffffffffffffffffffffffff161415611d49576040517f08c379a0000000000000000000000000000000000000000000000000000000008152600401611d4090612903565b60405180910390fd5b611d52816111dd565b15611d92576040517f08c379a0000000000000000000000000000000000000000000000000000000008152600401611d8990612803565b60405180910390fd5b611d9e600083836119dc565b6001600360008473ffffffffffffffffffffffffffffffffffffffff1673ffffffffffffffffffffffffffffffffffffffff1681526020019081526020016000206000828254611dee9190612ad0565b92505081905550816002600083815260200190815260200160002060006101000a81548173ffffffffffffffffffffffffffffffffffffffff021916908373ffffffffffffffffffffffffffffffffffffffff160217905550808273ffffffffffffffffffffffffffffffffffffffff16600073ffffffffffffffffffffffffffffffffffffffff167fddf252ad1be2c89b69c2b068fc378daa952ba7f163c4a11628f55a4df523b3ef60405160405180910390a45050565b600080823b905060008111915050919050565b604051806060016040528060008152602001600073ffffffffffffffffffffffffffffffffffffffff168152602001600081525090565b828054611efd90612c41565b90600052602060002090601f016020900481019282611f1f5760008555611f66565b82601f10611f3857805160ff1916838001178555611f66565b82800160010185558215611f66579182015b82811115611f65578251825591602001919060010190611f4a565b5b509050611f739190611f77565b5090565b5b80821115611f90576000816000905550600101611f78565b5090565b6000611fa7611fa284612a23565b6129fe565b905082815260208101848484011115611fc357611fc2612e0e565b5b611fce848285612bff565b509392505050565b600081359050611fe5816132fb565b92915050565b600081359050611ffa81613312565b92915050565b60008135905061200f81613329565b92915050565b60008151905061202481613329565b92915050565b600082601f83011261203f5761203e612e09565b5b813561204f848260208601611f94565b91505092915050565b60008135905061206781613340565b92915050565b60006020828403121561208357612082612e18565b5b600061209184828501611fd6565b91505092915050565b600080604083850312156120b1576120b0612e18565b5b60006120bf85828601611fd6565b92505060206120d085828601611fd6565b9150509250929050565b6000806000606084860312156120f3576120f2612e18565b5b600061210186828701611fd6565b935050602061211286828701611fd6565b925050604061212386828701612058565b9150509250925092565b6000806000806080858703121561214757612146612e18565b5b600061215587828801611fd6565b945050602061216687828801611fd6565b935050604061217787828801612058565b925050606085013567ffffffffffffffff81111561219857612197612e13565b5b6121a48782880161202a565b91505092959194509250565b600080604083850312156121c7576121c6612e18565b5b60006121d585828601611fd6565b92505060206121e685828601611feb565b9150509250929050565b6000806040838503121561220757612206612e18565b5b600061221585828601611fd6565b925050602061222685828601612058565b9150509250929050565b60006020828403121561224657612245612e18565b5b600061225484828501612000565b91505092915050565b60006020828403121561227357612272612e18565b5b600061228184828501612015565b91505092915050565b6000602082840312156122a05761229f612e18565b5b60006122ae84828501612058565b91505092915050565b60006122c38383612650565b60608301905092915050565b6122d881612b8b565b82525050565b6122e781612b8b565b82525050565b60006122f882612a64565b6123028185612a92565b935061230d83612a54565b8060005b8381101561233e57815161232588826122b7565b975061233083612a85565b925050600181019050612311565b5085935050505092915050565b61235481612b9d565b82525050565b600061236582612a6f565b61236f8185612aa3565b935061237f818560208601612c0e565b61238881612e1d565b840191505092915050565b600061239e82612a7a565b6123a88185612ab4565b93506123b8818560208601612c0e565b6123c181612e1d565b840191505092915050565b60006123d782612a7a565b6123e18185612ac5565b93506123f1818560208601612c0e565b80840191505092915050565b600061240a602783612ab4565b915061241582612e2e565b604082019050919050565b600061242d603283612ab4565b915061243882612e7d565b604082019050919050565b6000612450601c83612ab4565b915061245b82612ecc565b602082019050919050565b6000612473602483612ab4565b915061247e82612ef5565b604082019050919050565b6000612496601983612ab4565b91506124a182612f44565b602082019050919050565b60006124b9602c83612ab4565b91506124c482612f6d565b604082019050919050565b60006124dc603883612ab4565b91506124e782612fbc565b604082019050919050565b60006124ff602a83612ab4565b915061250a8261300b565b604082019050919050565b6000612522602983612ab4565b915061252d8261305a565b604082019050919050565b6000612545602e83612ab4565b9150612550826130a9565b604082019050919050565b6000612568602083612ab4565b9150612573826130f8565b602082019050919050565b600061258b603183612ab4565b915061259682613121565b604082019050919050565b60006125ae602c83612ab4565b91506125b982613170565b604082019050919050565b60006125d1602983612ab4565b91506125dc826131bf565b604082019050919050565b60006125f4602f83612ab4565b91506125ff8261320e565b604082019050919050565b6000612617602183612ab4565b91506126228261325d565b604082019050919050565b600061263a603183612ab4565b9150612645826132ac565b604082019050919050565b6060820160008201516126666000850182612692565b50602082015161267960208501826122cf565b50604082015161268c6040850182612692565b50505050565b61269b81612bf5565b82525050565b6126aa81612bf5565b82525050565b60006126bc82856123cc565b91506126c882846123cc565b91508190509392505050565b60006020820190506126e960008301846122de565b92915050565b600060808201905061270460008301876122de565b61271160208301866122de565b61271e60408301856126a1565b8181036060830152612730818461235a565b905095945050505050565b600060408201905061275060008301856122de565b61275d60208301846126a1565b9392505050565b6000602082019050818103600083015261277e81846122ed565b905092915050565b600060208201905061279b600083018461234b565b92915050565b600060208201905081810360008301526127bb8184612393565b905092915050565b600060208201905081810360008301526127dc816123fd565b9050919050565b600060208201905081810360008301526127fc81612420565b9050919050565b6000602082019050818103600083015261281c81612443565b9050919050565b6000602082019050818103600083015261283c81612466565b9050919050565b6000602082019050818103600083015261285c81612489565b9050919050565b6000602082019050818103600083015261287c816124ac565b9050919050565b6000602082019050818103600083015261289c816124cf565b9050919050565b600060208201905081810360008301526128bc816124f2565b9050919050565b600060208201905081810360008301526128dc81612515565b9050919050565b600060208201905081810360008301526128fc81612538565b9050919050565b6000602082019050818103600083015261291c8161255b565b9050919050565b6000602082019050818103600083015261293c8161257e565b9050919050565b6000602082019050818103600083015261295c816125a1565b9050919050565b6000602082019050818103600083015261297c816125c4565b9050919050565b6000602082019050818103600083015261299c816125e7565b9050919050565b600060208201905081810360008301526129bc8161260a565b9050919050565b600060208201905081810360008301526129dc8161262d565b9050919050565b60006020820190506129f860008301846126a1565b92915050565b6000612a08612a19565b9050612a148282612c73565b919050565b6000604051905090565b600067ffffffffffffffff821115612a3e57612a3d612dda565b5b612a4782612e1d565b9050602081019050919050565b6000819050602082019050919050565b600081519050919050565b600081519050919050565b600081519050919050565b6000602082019050919050565b600082825260208201905092915050565b600082825260208201905092915050565b600082825260208201905092915050565b600081905092915050565b6000612adb82612bf5565b9150612ae683612bf5565b9250827fffffffffffffffffffffffffffffffffffffffffffffffffffffffffffffffff03821115612b1b57612b1a612d1e565b5b828201905092915050565b6000612b3182612bf5565b9150612b3c83612bf5565b925082612b4c57612b4b612d4d565b5b828204905092915050565b6000612b6282612bf5565b9150612b6d83612bf5565b925082821015612b8057612b7f612d1e565b5b828203905092915050565b6000612b9682612bd5565b9050919050565b60008115159050919050565b60007fffffffff0000000000000000000000000000000000000000000000000000000082169050919050565b600073ffffffffffffffffffffffffffffffffffffffff82169050919050565b6000819050919050565b82818337600083830152505050565b60005b83811015612c2c578082015181840152602081019050612c11565b83811115612c3b576000848401525b50505050565b60006002820490506001821680612c5957607f821691505b60208210811415612c6d57612c6c612d7c565b5b50919050565b612c7c82612e1d565b810181811067ffffffffffffffff82111715612c9b57612c9a612dda565b5b80604052505050565b6000612caf82612bf5565b91507fffffffffffffffffffffffffffffffffffffffffffffffffffffffffffffffff821415612ce257612ce1612d1e565b5b600182019050919050565b6000612cf882612bf5565b9150612d0383612bf5565b925082612d1357612d12612d4d565b5b828206905092915050565b7f4e487b7100000000000000000000000000000000000000000000000000000000600052601160045260246000fd5b7f4e487b7100000000000000000000000000000000000000000000000000000000600052601260045260246000fd5b7f4e487b7100000000000000000000000000000000000000000000000000000000600052602260045260246000fd5b7f4e487b7100000000000000000000000000000000000000000000000000000000600052603260045260246000fd5b7f4e487b7100000000000000000000000000000000000000000000000000000000600052604160045260246000fd5b600080fd5b600080fd5b600080fd5b600080fd5b6000601f19601f8301169050919050565b7f4d696e74206d656d6265727368697020746f6b656e20746f2062652061626c6560008201527f20746f206d696e00000000000000000000000000000000000000000000000000602082015250565b7f4552433732313a207472616e7366657220746f206e6f6e20455243373231526560008201527f63656976657220696d706c656d656e7465720000000000000000000000000000602082015250565b7f4552433732313a20746f6b656e20616c7265616479206d696e74656400000000600082015250565b7f4552433732313a207472616e7366657220746f20746865207a65726f2061646460008201527f7265737300000000000000000000000000000000000000000000000000000000602082015250565b7f4552433732313a20617070726f766520746f2063616c6c657200000000000000600082015250565b7f4552433732313a206f70657261746f7220717565727920666f72206e6f6e657860008201527f697374656e7420746f6b656e0000000000000000000000000000000000000000602082015250565b7f4552433732313a20617070726f76652063616c6c6572206973206e6f74206f7760008201527f6e6572206e6f7220617070726f76656420666f7220616c6c0000000000000000602082015250565b7f4552433732313a2062616c616e636520717565727920666f7220746865207a6560008201527f726f206164647265737300000000000000000000000000000000000000000000602082015250565b7f4552433732313a206f776e657220717565727920666f72206e6f6e657869737460008201527f656e7420746f6b656e0000000000000000000000000000000000000000000000602082015250565b7f45524337323155524953746f726167653a2055524920736574206f66206e6f6e60008201527f6578697374656e7420746f6b656e000000000000000000000000000000000000602082015250565b7f4552433732313a206d696e7420746f20746865207a65726f2061646472657373600082015250565b7f45524337323155524953746f726167653a2055524920717565727920666f722060008201527f6e6f6e6578697374656e7420746f6b656e000000000000000000000000000000602082015250565b7f4552433732313a20617070726f76656420717565727920666f72206e6f6e657860008201527f697374656e7420746f6b656e0000000000000000000000000000000000000000602082015250565b7f4552433732313a207472616e73666572206f6620746f6b656e2074686174206960008201527f73206e6f74206f776e0000000000000000000000000000000000000000000000602082015250565b7f4552433732314d657461646174613a2055524920717565727920666f72206e6f60008201527f6e6578697374656e7420746f6b656e0000000000000000000000000000000000602082015250565b7f4552433732313a20617070726f76616c20746f2063757272656e74206f776e6560008201527f7200000000000000000000000000000000000000000000000000000000000000602082015250565b7f4552433732313a207472616e736665722063616c6c6572206973206e6f74206f60008201527f776e6572206e6f7220617070726f766564000000000000000000000000000000602082015250565b61330481612b8b565b811461330f57600080fd5b50565b61331b81612b9d565b811461332657600080fd5b50565b61333281612ba9565b811461333d57600080fd5b50565b61334981612bf5565b811461335457600080fd5b5056fe68747470733a2f2f676174657761792e70696e6174612e636c6f75642f697066732f516d544a6454677776444c6e345652476d696f6e326f773834793465786a3453504b6a4e637747706944787541652f302e6a736f6ea2646970667358221220566b2c29586594266ba4fc19038883669fdc6adf9485feae044e755050176bc064736f6c63430008070033",
  "linkReferences": {},
  "deployedLinkReferences": {}
}